:100000000C94B3010C944C020C9496020C94D00105
:100010000C94D0010C94D0010C94D0010C94D0011C
:100020000C94D0010C94D0010C94D0010C94D0010C
:100030000C94D0010C94E0020C94D0010C94D001EB
:100040000C94D0010C94D0010C94D0010C94D001EC
:100050000C9434080C94D0010C94D0010C94D00171
:100060000C94D0010C94D0010C94D0010C94D001CC
:100070000C94D0010C94D0010C94D0016E616E00F0
:10008000696E6600000000000000005F00000003D1
:10009000000300143E143E14242A7F2A124333081E
:1000A000666136495522500005030000001C2241BC
:1000B000000041221C0014083E081408083E0808ED
:1000C00000503000000808080808006060000020A8
:1000D000100804023E5149453E0004027F0042617F
:1000E00051494622414949361814127F1027454587
:1000F00045393E49494932010171090736494949A3
:1001000036264949493E0036360000005636000082
:10011000081422410014141414140041221408027B
:10012000015109063E4159555E7E0909097E7F4904
:100130004949363E414141227F4141413E7F494943
:1001400049417F090909013E4141493A7F080808B0
:100150007F00417F4100304040403F7F08142241F2
:100160007F404040407F020C027F7F0204087F3EB8
:100170004141413E7F090909061E2121215E7F0977
:10018000090976264949493201017F01013F404072
:10019000403F1F2040201F7F2010207F41221C2233
:1001A0004107087008076151494543007F4100003D
:1001B00002040810200000417F00040201020440F4
:1001C00040404040000102040020545454787F44D1
:1001D0004444383844444444384444447F385454B4
:1001E000541804047E0505085454543C7F08040444
:1001F0007800447D40002040443D007F10284400AA
:1002000000417F40007C047804787C08040478383E
:10021000444444387C14141408081414147C007CDE
:10022000080404485454542004043F44443C4040CF
:10023000207C1C2040201C3C4030403C442810289E
:10024000440C5050503C4464544C440008364141E6
:1002500000007F0000414136080002010204020054
:10026000407A10F35A00A0724E18090010A5D4E885
:100270000000E87648170000E40B54020000CA9A18
:100280003B000000E1F5050000809698000000406A
:10029000420F000000A086010000001027000000AF
:1002A00000E803000000006400000000000A0000F5
:1002B0000000000100000000002C76D888DC674FA9
:1002C0000823DFC1DFAE59E1B1B796E5E3E453C6D9
:1002D0003AE651997696E8E6C28426EB898C9B62D1
:1002E000ED407C6FFCEFBC9C9F40F2BAA56FA5F47B
:1002F00090055A2AF75C936B6CF9676DC11BFCE0A3
:10030000E40D47FEF520E6B500D0ED902E030094F5
:100310003577050080841E080000204E0A0000008A
:10032000C80C333333330F986E12831141EF8D2194
:1003300014893BE65516CFFEE6DB18D1844B381BFB
:10034000F77C1D901DA4BBE424203284725E2281C0
:1003500000C9F124ECA1E53D276364696E6F7073F9
:100360007578585B000011241FBECFEFD0E1DEBFCF
:10037000CDBF15E0A0E0B1E0E4E7FFE302C00590E7
:100380000D92AE3AB107D9F715E0AEEAB5E001C07B
:100390001D92AC3CB107E1F70E94B2050C94B81F66
:1003A0000C9400001F93182F8A3019F48DE00E94DE
:1003B000D2018091C00085FFFCCF1093C600212F91
:1003C000332727FD3095C9011F9108958091C00002
:1003D00087FFFCCF8091C60090E008951092C50081
:1003E0008DE48093C40088E18093C10086E080930F
:1003F000C2008FEF93E09093C9058093C805909356
:10040000CB058093CA0581EF93E09093C705809355
:10041000C605089510927C0086E880937A000895BE
:1004200010928000E1E8F0E0808188608083808124
:10043000856080838BE390E09093890080938800AF
:10044000E9E6F0E08081826080838081886080833B
:10045000EFE6F0E0808182608083089580917A00E9
:10046000806480937A0080917A0086FDFCCF609151
:1004700078007091790080E090E00E943C1423E3C2
:1004800033E343E550E40E94541120E030EC4FE7A1
:1004900054E40E944E12089578941F920F920FB662
:1004A0000F9211242F933F934F935F936F937F93FA
:1004B0008F939F93AF93BF93EF93FF930E942E026E
:1004C00028E539E344E35EE30E944E1220E030E089
:1004D00040E751E40E945A138823A4F46091E40396
:1004E00070E0882777FD8095982F0E948A1320E07E
:1004F00030E040E05FE30E9427110E947E0F60938E
:10050000E40303C085E08093E403FF91EF91BF9182
:10051000AF919F918F917F916F915F914F913F919B
:100520002F910F900FBE0F901F90189578941F92E7
:100530000F920FB60F9211242F933F934F935F9317
:100540006F937F938F939F93AF93BF93EF93FF939B
:100550000E942E0228E539E344E35EE30E944E1236
:1005600020E030E040E050E40E94FA121816A4F4B3
:100570006091E40370E0882777FD8095982F0E94B2
:100580008A1320E030E040E05FE30E94F6100E9412
:100590007E0F6093E40303C085E08093E403FF9142
:1005A000EF91BF91AF919F918F917F916F915F91EB
:1005B0004F913F912F910F900FBE0F901F90189564
:1005C00078941F920F920FB60F9211242F923F92A0
:1005D0004F925F926F927F928F929F92AF92BF9253
:1005E000CF92DF92EF92FF920F931F932F933F933F
:1005F0004F935F936F937F938F939F93AF93BF932B
:10060000EF93FF93DF93CF93CDB7DEB72897DEBF8D
:10061000CDBF0E942E02E090E40328E539E344E3D5
:100620005EE30E944E125B016C01FF240027F7FC81
:100630000095102FC801B7010E948A139B01AC01DD
:10064000C601B5010E94F6106093B0057093B10524
:100650008093B2059093B3056091B0057091B10598
:100660008091B2059091B3052091B8053091B905FC
:100670004091BA055091BB050E9427112AE037ED41
:1006800043E25CE30E9454116093B8057093B9058E
:100690008093BA059093BB056091B0057091B10548
:1006A0008091B2059091B3052091B4053091B505C4
:1006B0004091B6055091B7050E94F6102AE037ED3B
:1006C00043E25CE30E944E126093BC057093BD054B
:1006D0008093BE059093BF05E090E003F090E103A6
:1006E0000091E2031091E303ED82FE820F831887ED
:1006F0006091B0057091B1058091B2059091B305FC
:100700002091E5033091E6034091E7035091E8031F
:10071000A090B805B090B905C090BA05D090BB05BF
:100720006090E9037090EA038090EB039090EC03F3
:100730002090BC053090BD054090BE055090BF058F
:10074000E090ED03F090EE030091EF031091F003C1
:10075000E982FA820B831C830E9454117B018C0175
:10076000C601B501A40193010E9454119B01AC0183
:10077000C801B7010E9427117B018C01C201B101A0
:1007800029813A814B815C810E9454119B01AC010B
:10079000C801B7010E9427119B01AC016D817E81C8
:1007A0008F8198850E94F6106093E0037093E103B7
:1007B0008093E2039093E3036091E0037091E1037F
:1007C0008091E2039091E30323E333E343E75FE3A4
:1007D0000E94FA12181684F06091E0037091E10310
:1007E0008091E2039091E3032DEC3CEC4CEC5DE353
:1007F0000E945A13882364F480E090E0A0E0BFE3F5
:100800008093E0039093E103A093E203B093E303AA
:100810006091E0037091E1038091E2039091E30322
:1008200020E030E040E753E40E9454110E947E0F24
:100830006093B30070E080E090E00E943C1460930D
:10084000C0057093C1058093C2059093C305809144
:10085000B0059091B105A091B205B091B305809318
:10086000B4059093B505A093B605B093B7050E9463
:100870002E0220E030E040E551E40E94FA12181602
:1008800074F41092B30080E090E0A0E0B0E08093B8
:10089000C0059093C105A093C205B093C3052896E7
:1008A000DEBFCDBFCF91DF91FF91EF91BF91AF91AF
:1008B0009F918F917F916F915F914F913F912F9178
:1008C0001F910F91FF90EF90DF90CF90BF90AF906E
:1008D0009F908F907F906F905F904F903F902F9060
:1008E0000F900FBE0F901F901895569A579A83E855
:1008F0008093B00081E08093B100089520E030E063
:1009000040E753E40E9454110E947E0F6093B300AD
:1009100070E080E090E00E943C146093C00570930A
:10092000C1058093C2059093C305089590936C040C
:1009300080936B0470936E0460936D04CA010E94EF
:10094000110E08950F931F93DF93CF93CDB7DEB7AA
:10095000C855D0400FB6F894DEBF0FBECDBFDE0144
:100960001196EDE5F4E088E001900D928150E1F7F9
:10097000DE011996E5E5F4E088E001900D928150E2
:10098000E1F7DE015196EDE4F4E088E001900D928C
:100990008150E1F7DE015996E5E4F4E088E001904A
:1009A0000D928150E1F7DE019196EDE3F4E088E0ED
:1009B00001900D928150E1F7DE019996E5E3F4E0B4
:1009C00088E001900D928150E1F7DE01D196EDE2D1
:1009D000F4E088E001900D928150E1F7DE01D996B4
:1009E000E5E2F4E088E001900D928150E1F7DE014C
:1009F000AF5BBF4FEDE1F4E088E001900D928150D4
:100A0000E1F7DE01A75BBF4FE5E1F4E088E001908C
:100A10000D928150E1F7DE01AF5ABF4FEDE0F4E0F7
:100A200088E001900D928150E1F729813A814B8154
:100A30005C816D817E818F8198850FEF1FEF0E9411
:100A40001F0C29853A854B855C856D857E858F8554
:100A500098890E941F0C29893A894B895C896D8984
:100A60007E898F89988D0E941F0C298D3A8D4B8D20
:100A70005C8D6D8D7E8D8F8D98A10E941F0C29A19C
:100A80003AA14BA15CA16DA17EA18FA198A50E9466
:100A90001F0C29A53AA54BA55CA56DA57EA58FA524
:100AA00098A90E941F0C29A93AA94BA95CA96DA974
:100AB0007EA98FA998AD0E941F0C29AD3AAD4BAD10
:100AC0005CAD6DAD7EAD8FADFE01E05CFF4F908102
:100AD0000E941F0CFE01EF5BFF4F2081FE01EE5BC9
:100AE000FF4F3081FE01ED5BFF4F4081FE01EC5B6B
:100AF000FF4F5081FE01EB5BFF4F6081FE01EA5B1F
:100B0000FF4F7081FE01E95BFF4F8081FE01E85BD2
:100B1000FF4F90810E941F0CFE01E75BFF4F208179
:100B200031814281538164817581868197810E94E0
:100B30001F0CFE01EF5AFF4F20813181428153810A
:100B400064817581868197810E941F0CC85ADF4F8E
:100B50000FB6F894DEBF0FBECDBFCF91DF911F91CE
:100B60000F9108952F923F924F925F926F927F92D2
:100B70008F929F92AF92BF92CF92DF92EF92FF92AD
:100B80000F931F93DF93CF93CDB7DEB7C255D040FD
:100B90000FB6F894DEBF0FBECDBF6091AE05709169
:100BA000AF05882777FD8095982F0E948A135B01F7
:100BB0006C0120E030E84BE355E40E9454117B01C6
:100BC0008C0120E030E040E85FE30E945A13882364
:100BD0001CF461E070E024C0C801B70120E03FEFE1
:100BE0004FE757E40E94FA121816B4F4C601B50193
:100BF00020E030E040E251E40E9454110E947E0F58
:100C00008CE291E005C0FC013197F1F76150704032
:100C100061157105C1F707C0C801B7010E947E0FB9
:100C2000CB010197F1F70E94EE010E94750410922A
:100C30007C0086E880937A000E9410020E94240EB5
:100C40000E94040D83E090E00E949B0BE89AE99AD1
:100C50008091C10080688093C1002091650430912B
:100C600066041A8A198A422F2B8B3C8B8AE090E00B
:100C7000682F9E8B8D8B8BE090E0988F8F8B1A8ED8
:100C8000198E2B8F3C8F23EE30E03E8F2D8F24EE7C
:100C900030E038A32F8F29893A895C897E89988D25
:100CA0000FEF1FEF0E941F0C298D3A8D4B8D5C8D2D
:100CB0006D8D7E8D8F8D98A10E941F0C78940E945F
:100CC000A20422243324EE24FF24E0E0F0E08AE0B2
:100CD000B82E27C0B70180E090E00E943C147B0151
:100CE0008C01C301B20120E030E040E551EC0E94EC
:100CF0004E1220E030E04CE553E40E9454119B0179
:100D0000AC01C801B7010E9427110E947E0FB62EC8
:100D1000C101B6010E94311A7601E81AF90AF701F9
:100D2000140180916504909166048E159F0510F45E
:100D3000E0E0F0E024E130E038872F836CED8CEDCB
:100D400090E09E838D834E2FFC83EB832E2FFA83BE
:100D5000E9833A815C817E8184E1988500E010E03E
:100D60000E941F0CBF86188ABD861E864E2DFC86EB
:100D7000EB862E2DFA86E9863A855C856B2D70E030
:100D80008B2D90E00FE118EF0E941F0C0E942E02A5
:100D900028E539E344E35EE30E944E122B013C0157
:100DA000ADB7BEB718970FB6F894BEBF0FBEADBFB4
:100DB000EDB7FEB7319621E230E02C0F3D1F1296C1
:100DC0003C932E93119780E091E093838283448239
:100DD0005582668277820E942F1C8091E4030F90D7
:100DE0000F90EDB7FEB731962BE230E02C0F3D1F90
:100DF000ADB7BEB712963C932E931197A3E0B1E026
:100E0000B383A283848315820E942F1C2091E50363
:100E10003091E6034091E7035091E80300D0EDB72D
:100E2000FEB7319685E390E08C0F9D1FADB7BEB73E
:100E300012969C938E931197A6E0B1E0B383A283A0
:100E400024833583468357830E942F1C2091E90316
:100E50003091EA034091EB035091EC03EDB7FEB7FC
:100E600031968FE390E08C0F9D1FADB7BEB7129601
:100E70009C938E931197A6E0B1E0B383A283248361
:100E80003583468357830E942F1C2091ED033091B8
:100E9000EE034091EF035091F003EDB7FEB73196AA
:100EA00089E490E08C0F9D1FADB7BEB712969C935E
:100EB0008E931197A6E0B1E0B383A2832483358398
:100EC000468357830E942F1C10926C0410926B046F
:100ED00010926E0410926D042DB73EB7285F3F4FFD
:100EE0000FB6F8943EBF0FBE2DBF8BE091E00E947D
:100EF000110E84E690E090936C0480936B04109242
:100F00006E0410926D04CE0181960E94110EA8EC21
:100F1000B0E0B0936C04A0936B0410926E04109236
:100F20006D048CE191E00E94110E2CE231E03093CF
:100F30006C0420936B0410926E0410926D04CE0129
:100F40008B960E94110E8EE291E00E94110E10927B
:100F50006C0410926B0486EE90E090936E04809384
:100F60006D0480E391E00E94110EA4E1B0E0B09323
:100F70006C04A0936B0426EE30E030936E04209353
:100F80006D04CE01C5960E94110E86E490E0909308
:100F90006C0480936B04A6EEB0E0B0936E04A09353
:100FA0006D0485E391E00E94110E2AE530E0309354
:100FB0006C0420936B0486EE90E090936E04809313
:100FC0006D04CE01CF960E94110EACE8B0E0B09354
:100FD0006C04A0936B0426EE30E030936E042093F3
:100FE0006D048AE391E00E94110E80EA90E09093F4
:100FF0006C0480936B04A6EEB0E0B0936E04A093F3
:101000006D04CE01875B9F4F0E94110EE090670434
:10101000F0906804C0906504D09066044101089483
:10102000811C911CC401B6010E94311A892B09F060
:1010300051CE0E94040D29893A894B895C896D89BA
:101040007E898F89988D0FEF1FEF0E941F0C298DCD
:101050003A8D4B8D5C8D6D8D7E8D8F8D98A10E940C
:101060001F0C0E94A20436CE1F920F920FB60F9251
:101070001124CF92DF92EF92FF920F931F932F9341
:101080003F934F935F936F937F938F939F93AF9310
:10109000BF93CF93DF93EF93FF9300D000D08FE304
:1010A00091E0ADB7BEB712969C938E93119784ECE6
:1010B00095E014969C938E9313970E941A1C0F90A0
:1010C0000F9082E491E0EDB7FEB7928381830E9496
:1010D000D01B8CE691E0ADB7BEB712969C938E9371
:1010E00011970E94D01B81E991E0EDB7FEB7928382
:1010F00081830E94D01B86EB91E0ADB7BEB71296FC
:101100009C938E9311970E94D01B8BED91E0EDB7CD
:10111000FEB7928381830E94D01B28EE33E00F90AC
:101120000F904CE251E0CA010197F1F72150304095
:10113000D1F700D000D000D0EDB7FEB73196809146
:10114000C6059091C705ADB7BEB712969C938E9316
:101150001197CFE3D1E0D383C28304EC15E015836C
:1011600004830E94BC1BEDB7FEB736960FB6F89409
:10117000FEBF0FBEEDBFC8010E947C1A9093C5054B
:101180008093C4052091C4053091C50500D000D0DE
:1011900088EF91E0ADB7BEB712969C938E931197EE
:1011A00014963C932E9313970E94D01B8091C405F4
:1011B0009091C5050F900F900F900F90833091057F
:1011C00009F424C1843091053CF48130910561F02B
:1011D000029709F08AC274C08430910509F4BCC139
:1011E000059709F082C231C200D08FEF91E0EDB7D0
:1011F000FEB7928381830E94D01B00D000D0EDB750
:10120000FEB731968091C6059091C705ADB7BEB7C0
:1012100012969C938E931197D383C28384EC95E0AE
:10122000958384830E94BC1B20ED37E0EDB7FEB7A9
:1012300036960FB6F894FEBF0FBEEDBF4CE251E0FC
:10124000CA010197F1F721503040D1F700D000D00A
:1012500000D0EDB7FEB731968091C6059091C705D5
:10126000ADB7BEB712969C938E9311978FE391E022
:101270009383828304EC15E0158304830E94BC1BD6
:10128000EDB7FEB736960FB6F894FEBF0FBEEDBFB2
:10129000C8010E947C1A182F84EC95E00E947C1AE9
:1012A000180F1093E4038091E4038F3028F48091A9
:1012B000E403823008F016C28AE08093E40312C28D
:1012C00000D08DE592E0ADB7BEB712969C938E9399
:1012D00011970E94D01B00D000D0EDB7FEB7319619
:1012E0008091C6059091C705ADB7BEB712969C9385
:1012F0008E931197D383C28384EC95E09583848386
:101300000E94BC1B20ED37E0EDB7FEB736960FB656
:10131000F894FEBF0FBEEDBF4CE251E0CA01019749
:10132000F1F721503040D1F700D000D000D0EDB718
:10133000FEB731968091C6059091C705ADB7BEB78F
:1013400012969C938E9311978FE391E093838283FF
:10135000A4ECCA2EA5E0DA2ED582C4820E94BC1B62
:10136000EDB7FEB736960FB6F894FEBF0FBEEDBFD1
:1013700084EC95E00E947C1A7C01C6010E947C1AD4
:10138000E80EF91E0027F7FC0095102FC801B701E1
:101390000E948A1327E137EB41ED58E30E94541174
:1013A0006093E5037093E6038093E7039093E8036B
:1013B0006091E5037091E6038091E7039091E80363
:1013C00026EA3BE944E45BE30E94FA1218168CF02B
:1013D0006091E5037091E6038091E7039091E80343
:1013E0002FE632E143E05AE30E945A1388230CF0BF
:1013F00079C18FE692E1A3E0BBE38093E50390938C
:10140000E603A093E703B093E8036CC100D08FEB31
:1014100092E0ADB7BEB712969C938E9311970E943F
:10142000D01B00D000D0EDB7FEB731968091C60535
:101430009091C705ADB7BEB712969C938E93119746
:10144000D383C28384EC95E0958384830E94BC1B84
:1014500020ED37E0EDB7FEB736960FB6F894FEBF35
:101460000FBEEDBF4CE251E0CA010197F1F72150E8
:101470003040D1F700D000D000D0EDB7FEB73196A4
:101480008091C6059091C705ADB7BEB712969C93E3
:101490008E9311978FE391E09383828374ECC72E30
:1014A00075E0D72ED582C4820E94BC1BEDB7FEB773
:1014B00036960FB6F894FEBF0FBEEDBF84EC95E0F4
:1014C0000E947C1A7C01C6010E947C1AE80EF91E5B
:1014D0000027F7FC0095102FC801B7010E948A135E
:1014E00027E137EB41ED58E30E9454116093ED037F
:1014F0007093EE038093EF039093F0036091ED03FC
:101500007091EE038091EF039091F0032FE632E1AA
:1015100043E05BE30E94FA1218168CF06091E50339
:101520007091E6038091E7039091E80327E137EBA0
:1015300041ED58E30E945A1388230CF0D3C08AE08F
:1015400097EDA3EABCE38093ED039093EE03A093A1
:10155000EF03B093F003C6C000D081E293E0ADB7D3
:10156000BEB712969C938E9311970E94D01B00D009
:1015700000D0EDB7FEB731968091C6059091C705B2
:10158000ADB7BEB712969C938E931197D383C28347
:1015900084EC95E0958384830E94BC1B20ED37E0AA
:1015A000EDB7FEB736960FB6F894FEBF0FBEEDBF8F
:1015B0004CE251E0CA010197F1F721503040D1F7D8
:1015C00000D000D000D0EDB7FEB731968091C605AF
:1015D0009091C705ADB7BEB712969C938E931197A5
:1015E0008FE391E09383828364ECC62E65E0D62E70
:1015F000D582C4820E94BC1BEDB7FEB736960FB6EB
:10160000F894FEBF0FBEEDBF84EC95E00E947C1AFB
:101610007C01C6010E947C1AE80EF91E0027F7FC27
:101620000095102FC801B7010E948A132CEA35ECEF
:1016300047E257E30E9454116093E9037093EA0371
:101640008093EB039093EC034DC000D083E893E0CC
:10165000ADB7BEB712969C938E9311970E94D01B84
:1016600000D000D0EDB7FEB731968091C6059091BD
:10167000C705ADB7BEB712969C938E931197D383CF
:10168000C28384EC95E0958384830E94BC1B20ED8B
:1016900037E0EDB7FEB736960FB6F894FEBF0FBE33
:1016A000EDBF4CE251E0CA010197F1F72150304003
:1016B000D1F784EC95E00E947C1A8C0184EC95E0D3
:1016C0000E947C1A800F911F9C0153E0220F331F50
:1016D0005A95E1F7880F991F280F391F3093AF05EE
:1016E0002093AE0582E592E002C082EC93E00E9476
:1016F000E51B88EB9BE02CE231E0F9013197F1F733
:101700000197D9F7FF91EF91DF91CF91BF91AF9101
:101710009F918F917F916F915F914F913F912F9109
:101720001F910F91FF90EF90DF90CF900F900FBE21
:101730000F901F9018959C0190936A048093690400
:10174000449886E385B94398439A449A2115310514
:1017500071F480EF90E0909366048093650480E4D8
:1017600091E0909368048093670488E432C021304C
:10177000310571F480E491E09093660480936504F0
:1017800080EF90E0909368048093670488EE21C016
:101790002230310571F480EF90E0909366048093DD
:1017A000650480E491E0909368048093670488E87E
:1017B00010C02330310581F480E491E090936604F9
:1017C0008093650480EF90E09093680480936704B1
:1017D00088E285B94398439A44988AE285B9439848
:1017E000439A449A15B84398439A15B84398439A34
:1017F0008091650490916604019795B9019643988C
:10180000439A815085B94398439A44988BE285B9AD
:101810004398439A449A15B84398439A15B8439805
:10182000439A8091670490916804019795B9019655
:101830004398439A815085B94398439A0895EF920B
:10184000FF920F931F93DF93CF93CDB7DEB7289707
:101850000FB6F894DEBF0FBECDBFF22F2983E32F62
:101860003A834B835C83362F6D83272F7E838F8350
:1018700098877801AB81BC81062F172F6F817885FF
:1018800044988AE285B94398439A449AE5B94398C3
:10189000439AF5B94398439AB5B94398439AA5B981
:1018A0004398439A44988BE285B94398439A449A63
:1018B00025B94398439A35B94398439A75B94398E3
:1018C000439A65B94398439A44988CE285B9439802
:1018D000439A449A2F2F3E2FC901AC010DC0F5B891
:1018E0004398439AE5B84398439A2F5F3F4F621756
:1018F0007307A8F74F5F5F4FA417B50710F0980163
:10190000F6CF28960FB6F894DEBF0FBECDBFCF91AD
:10191000DF911F910F91FF90EF900895EF92FF924A
:101920000F931F93DF93CF93CDB7DEB728970FB6F2
:10193000F894DEBF0FBECDBFF22F2983E32F3A8389
:101940004B835C83362F6D83272F7E838F8398870D
:10195000D8010B811C81E62EF72E6F817885449883
:101960008AE285B94398439A449AE5B94398439AE1
:10197000F5B94398439A15B94398439A05B94398E2
:10198000439A44988BE285B94398439A449A25B97F
:101990004398439A35B94398439A75B94398439A03
:1019A00065B94398439A44988CE285B94398439A21
:1019B000449A2F2F3E2FC901AC0114C011968C916F
:1019C000119785B94398439A12968C91129785B9CD
:1019D00014964398439A2F5F3F4F6217730770F72F
:1019E0004F5F5F4F0417150710F09701F6CF289649
:1019F0000FB6F894DEBF0FBECDBFCF91DF911F9120
:101A00000F91FF90EF9008950F931F93DF93CF9363
:101A1000CDB7DEB728970FB6F894DEBF0FBECDBFA7
:101A200010926C0410926B0410926E0410926D046C
:101A30002091650430916604215030408091670404
:101A40009091680401971A821982422F3C832B835C
:101A50001E821D8298878F830091710410917204F9
:101A600029813A815C816D817E8198850E941F0C5D
:101A700028960FB6F894DEBF0FBECDBFCF91DF9191
:101A80001F910F9108956F927F928F929F92AF92C4
:101A9000BF92CF92DF92EF92FF920F931F93CF935B
:101AA000DF93982F00916B0410916C0424E0E22ED8
:101AB000F12CE00EF11E60906D0470906E04805267
:101AC0008F3508F09FC0E301279685E0989F90012D
:101AD00011242C51304044988BE285B94398439AA5
:101AE000449A75B84398439A65B84398439AD5B9D0
:101AF0004398439AC5B94398439AC0906F04D090D5
:101B00007004A0907104B0907204A8019AE2892E2A
:101B10008CE2982E36C0449885B84398439A449AEC
:101B200055B94398439A45B94398439A55B9439850
:101B3000439A45B94398439A449895B84398439A31
:101B4000449AF901B491B30191E014C0A92FAB23D9
:101B500011F48B2D01C08D2D85B94398439AAA238A
:101B600011F48A2D01C08C2D85B94398439A6F5F7B
:101B70007F4F990FC617D70748F72F5F3F4F4F5F2B
:101B80005F4FE416F50638F644988AE285B9439823
:101B9000439A449A55B94398439A45B94398439A0E
:101BA00055B94398439A45B94398439A44988CE26F
:101BB00085B94398439A449AC30107C0B5B843987E
:101BC000439AA5B84398439A0196C817D907B0F726
:101BD00098012A5F3F4F30936C0420936B048091EF
:101BE0006504909166042817390760F010926C0420
:101BF00010926B0488E090E0680E791E70926E047B
:101C000060926D04DF91CF911F910F91FF90EF9043
:101C1000DF90CF90BF90AF909F908F907F906F900C
:101C200008951F93CF93DF93EC0110E003C00E944F
:101C3000430D1F5FFE01E10FF11D80818823B9F77D
:101C4000DF91CF911F91089585B7806885BF85B7D3
:101C5000806885BF8FE787B98FEF84B90E94310E06
:101C60000895429888EE93E02CE231E0F901319733
:101C7000F1F70197D9F7429A88EE93E02CE231E030
:101C8000F9013197F1F70197D9F7449A439A459AA8
:101C900040984198469A449888E285B94398439A77
:101CA000449A449881E185B94398439A449A88E5D7
:101CB00092E02CE231E0F9013197F1F70197D9F781
:101CC00044988BEC85B94398439A449A81E085B94E
:101CD0004398439A449880EC85B94398439A449A30
:101CE00086E285B94398439A88E085B94398439A38
:101CF000449881EC85B94398439A449A80E185B928
:101D00004398439A449885EC85B94398439A449AFA
:101D100085E385B94398439A8EE385B94398439AFE
:101D2000449886E385B94398439A449A88E485B9F0
:101D30004398439A449880EB85B94398439A449AD0
:101D40008AE485B94398439A449881EB85B94398CE
:101D5000439A449A15B84398439A8BE185B94398BE
:101D6000439A449886EB85B94398439A449AE1EAAA
:101D7000F4E0819185B94398439A44E0E53AF40749
:101D8000C1F7449887EC85B94398439A449A85EB08
:101D900085B94398439A449886EF85B94398439A06
:101DA000449AEDE9F4E0819185B94398439A84E03F
:101DB000E03AF807C1F7449882EF85B94398439A0F
:101DC000449A15B84398439A449886E285B9439853
:101DD000439A449A81E085B94398439A44988AE3A8
:101DE00085B94398439A449A85E585B94398439ABF
:101DF000449880EE85B94398439A449AEDE8F4E01C
:101E0000819185B94398439A44E0EC39F407C1F7CE
:101E1000449881EE85B94398439A449AEDE7F4E0FB
:101E2000819185B94398439A84E0EC38F807C1F76B
:101E300044988AE285B94398439A449AE8E7F4E0E3
:101E4000819185B94398439A44E0EC37F407C1F790
:101E500044988BE285B94398439A449AE3E7F4E0C7
:101E6000819185B94398439A84E0E737F807C1F731
:101E7000449884E385B94398439A449A449884EB00
:101E800085B94398439A449A15B84398439A44981D
:101E900087EB85B94398439A449A87E085B943987C
:101EA000439A44988CE285B94398439A449A20E037
:101EB00030E010C015B84398439A15B84398439A38
:101EC000019641E080349407A9F72F5F3F4F203FF0
:101ED000310519F080E090E0EDCF449889E285B9B2
:101EE0004398439A449A84EF91E02CE231E0F9015F
:101EF0003197F1F70197D9F7419A0895EF92FF9240
:101F00000F931F937B018C0120E030E040E05FE401
:101F10000E942A1388238CF0C801B70120E030E02A
:101F200040E05FE40E94F6100E94E8139B01AC01C0
:101F3000205030404040504806C0C801B7010E94C0
:101F4000E8139B01AC01B901CA011F910F91FF90E9
:101F5000EF900895A0E0B0E0E0EBFFE00C94451AAC
:101F6000DC012B01FA019C91923008F439C1EB019C
:101F70008881823008F433C1943069F4843009F0E8
:101F80002FC111969C9111978981981709F428C146
:101F9000A6EAB4E025C1843009F421C18230A9F455
:101FA000923009F01DC19A01AD0188E0EA01099063
:101FB000AE01E90109929E018150C1F7E2018981D8
:101FC00011969C918923818308C1923009F407C13D
:101FD00012962D903C901397EB018A819B81149669
:101FE000AD90BD90CD90DC901797EC80FD800E8178
:101FF0001F819101281B390BB90137FF04C06627E7
:102000007727621B730B603271050CF061C01216EA
:1020100013066CF537014801062E04C09694879488
:10202000779467940A94D2F721E030E040E050E0E2
:1020300004C0220F331F441F551F6A95D2F7215049
:102040003040404050402E213F2140235123211554
:1020500031054105510521F021E030E040E050E03C
:1020600079018A01E628F728082919293CC0232B81
:10207000D1F1260E371E35014601062E04C0969476
:102080008794779467940A94D2F721E030E040E097
:1020900050E004C0220F331F441F551F6A95D2F72A
:1020A00021503040404050402A213B214C215D21AD
:1020B000211531054105510521F021E030E040E0D6
:1020C00050E059016A01A628B728C828D9280BC0B2
:1020D000821593052CF01C01AA24BB24650103C0C2
:1020E000EE24FF24870111969C91D20111968C91C8
:1020F000981709F445C0992339F0A80197012A19C6
:102100003B094C095D0906C0A60195012E193F093E
:10211000400B510B57FD08C0118233822282248369
:102120003583468357831DC081E0818333822282B9
:1021300088279927DC01821B930BA40BB50B8483A2
:102140009583A683B7830DC0220F331F441F551FED
:1021500024833583468357838281938101979383B8
:1021600082832481358146815781DA01C901019733
:10217000A109B1098F5F9F4FAF4FBF4328F30BC039
:10218000918333822282EA0CFB1C0C1D1D1DE4820C
:10219000F5820683178383E080832481358146811D
:1021A000578157FF1AC0C901AA2797FDA095BA2FDA
:1021B00081709070A070B0705695479537952795AF
:1021C000822B932BA42BB52B84839583A683B78373
:1021D00082819381019693838283DF0101C0D201C2
:1021E000CD01CDB7DEB7E2E10C94611AA0E2B0E018
:1021F000ECEFF0E10C94511A69837A838B839C8312
:102200002D833E834F835887E9E0EE2EF12CEC0EB0
:10221000FD1ECE010196B7010E94D9158E010F5EF9
:102220001F4FCE010596B8010E94D9158A8991E009
:1022300089278A8BC701B801AE01475E5F4F0E94B4
:10224000AA0F0E940415A096E6E00C946D1AA0E275
:10225000B0E0EDE2F1E10C94511A69837A838B834B
:102260009C832D833E834F835887F9E0EF2EF12C1A
:10227000EC0EFD1ECE010196B7010E94D9158E010C
:102280000F5E1F4FCE010596B8010E94D915C701F8
:10229000B801AE01475E5F4F0E94AA0F0E9404156D
:1022A000A096E6E00C946D1AA0E2B0E0EAE5F1E158
:1022B0000C94451A69837A838B839C832D833E8398
:1022C0004F835887CE010196BE01675F7F4F0E9402
:1022D000D915CE010596BE016F5E7F4F0E94D915BC
:1022E0009985923088F089898230C8F0943019F449
:1022F000823051F404C0843029F4923081F486EAAB
:1023000094E0C6C0923049F420E09A858A899813F7
:1023100021E02A87CE010996BBC0823049F420E033
:102320009A858A89981321E02A8BCE014196B0C004
:102330002D843E844F8458886D887E888F88988C41
:10234000EE24FF248701AA24BB24650140E050E06D
:1023500060E070E0E0E0F0E0C10181709070892BF6
:10236000E9F0E60CF71C081D191D9A01AB012A0DB6
:102370003B1D4C1D5D1D80E090E0A0E0B0E0E61448
:10238000F7040805190520F481E090E0A0E0B0E032
:10239000BA01A901480F591F6A1F7B1FAA0CBB1C59
:1023A000CC1CDD1C97FE08C081E090E0A0E0B0E00E
:1023B000A82AB92ACA2ADB2A3196E032F10549F067
:1023C000660C771C881C991C569447943794279464
:1023D000C3CFFA85EA892B893C898B859C85280F98
:1023E000391F2E5F3F4F17C0CA0181709070892B33
:1023F00061F016950795F794E79480E090E0A0E0EF
:10240000B0E8E82AF92A0A2B1B2B76956795579591
:1024100047952F5F3F4F77FDE7CF0CC0440F551F07
:10242000661F771F17FD4160EE0CFF1C001F111F78
:1024300021503040403090E0590790E0690790E427
:10244000790760F32B8F3C8FDB01CA018F77907087
:10245000A070B07080349105A105B10561F447FD0D
:102460000AC0E114F1040105110529F0405C5F4F39
:102470006F4F7F4F40781A8EFE1711F081E08A8FE0
:102480004D8F5E8F6F8F78A383E0898FCE01499641
:102490000E940415A096E2E10C94611AA8E1B0E054
:1024A000E4E5F2E10C944D1A69837A838B839C8373
:1024B0002D833E834F835887B9E0EB2EF12CEC0E31
:1024C000FD1ECE010196B7010E94D9158E010F5E47
:1024D0001F4FCE010596B8010E94D91529852230DB
:1024E00008F47EC03989323010F4B8017CC08A8586
:1024F0009A8989278A87243011F0223031F42317F2
:1025000009F06EC066EA74E06EC0343039F41D869E
:102510001E861F86188A1C861B8604C0323021F452
:1025200084E08987B7015FC02B853C858B899C89B6
:10253000281B390B3C872B87ED84FE840F85188977
:10254000AD88BE88CF88D88CEA14FB040C051D0525
:1025500040F4EE0CFF1C001F111F215030403C873F
:102560002B8720E030E040E050E080E090E0A0E009
:10257000B0E460E070E0EA14FB040C051D0540F0D7
:10258000282B392B4A2B5B2BEA18FB080C091D0959
:10259000B695A79597958795EE0CFF1C001F111F08
:1025A0006F5F7F4F6F31710531F7DA01C9018F77A6
:1025B0009070A070B07080349105A105B10561F4F0
:1025C00027FD0AC0E114F1040105110529F0205C82
:1025D0003F4F4F4F5F4F20782D873E874F87588B57
:1025E000BE01675F7F4FCB010E9404156896EAE049
:1025F0000C94691AA8E1B0E0E0E0F3E10C94511A00
:1026000069837A838B839C832D833E834F83588792
:1026100089E0E82EF12CEC0EFD1ECE010196B701EB
:102620000E94D9158E010F5E1F4FCE010596B8018D
:102630000E94D9158985823040F08989823028F03E
:10264000C701B8010E94511601C08FEF6896E6E0FD
:102650000C946D1AA8E1B0E0E0E3F3E10C94511A98
:1026600069837A838B839C832D833E834F83588732
:1026700089E0E82EF12CEC0EFD1ECE010196B7018B
:102680000E94D9158E010F5E1F4FCE010596B8012D
:102690000E94D9158985823040F08989823028F0DE
:1026A000C701B8010E94511601C08FEF6896E6E09D
:1026B0000C946D1AA8E1B0E0E0E6F3E10C94511A35
:1026C00069837A838B839C832D833E834F835887D2
:1026D00089E0E82EF12CEC0EFD1ECE010196B7012B
:1026E0000E94D9158E010F5E1F4FCE010596B801CD
:1026F0000E94D9158985823040F08989823028F07E
:10270000C701B8010E94511601C081E06896E6E059
:102710000C946D1AA8E0B0E0E0E9F3E10C944E1AD5
:102720009B01AC0183E08983DA01C9018827B7FDE9
:1027300083959927AA27BB27B82E21153105410576
:10274000510519F482E089833AC08823A9F020302A
:1027500080E0380780E0480780E8580729F460E007
:1027600070E080E09FEC30C0EE24FF248701E21A85
:10277000F30A040B150B02C079018A018EE1C82E01
:10278000D12CDC82CB82ED82FE820F831887C801B8
:10279000B7010E94B51401971816190684F4082E83
:1027A00004C0EE0CFF1C001F111F0A94D2F7ED822B
:1027B000FE820F831887C81AD90ADC82CB82BA82BC
:1027C000CE0101960E9404152896E9E00C946A1A3D
:1027D000ACE0B0E0EEEEF3E10C94551A69837A8335
:1027E0008B839C83CE010196BE016B5F7F4F0E945D
:1027F000D9158D81823061F1823050F1843021F41D
:102800008E81882351F12EC02F81388537FD20C05D
:102810006E812F3131051CF06623F9F023C08EE163
:1028200090E0821B930B29853A854B855C8504C01B
:1028300056954795379527958A95D2F76623B1F037
:1028400050954095309521953F4F4F4F5F4F0EC0AB
:1028500020E030E040E050E009C02FEF3FEF4FEFC5
:102860005FE704C020E030E040E050E8B901CA0171
:102870002C96E2E00C94711AA8E0B0E0E2E4F4E1F6
:102880000C944D1A7B018C01611571058105910530
:1028900019F482E0898360C083E089838EE1C82EC9
:1028A000D12CDC82CB82ED82FE820F831887C80197
:1028B000B7010E94B514FC013197F7FF3BC02227F6
:1028C00033272E1B3F0B57016801022E04C0D694FC
:1028D000C794B794A7940A94D2F740E050E060E020
:1028E00070E081E090E0A0E0B0E004C0880F991FA4
:1028F000AA1FBB1F2A95D2F70197A109B1098E2102
:102900009F21A023B1230097A105B10521F041E04B
:1029100050E060E070E04A295B296C297D294D83F5
:102920005E836F8378878EE190E08E1B9F0B9C8384
:102930008B8312C0309781F00E2E04C0EE0CFF1C6A
:10294000001F111F0A94D2F7ED82FE820F831887B1
:10295000CE1ADF0ADC82CB821A82CE0101960E9457
:1029600004152896EAE00C94691AEF92FF920F93EF
:102970001F937B018C0180E0E81680E0F80681E07F
:10298000080780E0180788F48FEFE816F1040105C6
:10299000110531F028F088E090E0A0E0B0E017C029
:1029A00080E090E0A0E0B0E012C080E0E81680E0B7
:1029B000F80680E0080781E0180728F088E190E039
:1029C000A0E0B0E004C080E190E0A0E0B0E020E250
:1029D00030E040E050E0281B390B4A0B5B0B04C091
:1029E00016950795F794E7948A95D2F7F701E25583
:1029F000FB4F8081281B310941095109C9011F91F1
:102A00000F91FF90EF900895DF92EF92FF920F9356
:102A10001F93FC01E480F58006811781D1808081BD
:102A2000823048F480E090E0A0E1B0E0E82AF92AA2
:102A30000A2B1B2BA5C0843009F49FC0823021F4DF
:102A4000EE24FF24870105C0E114F10401051105FE
:102A500019F4E0E0F0E096C0628173819FEF623884
:102A600079070CF05BC022E83FEF261B370B2A31B9
:102A700031052CF020E030E040E050E02AC0B80101
:102A8000A701022E04C076956795579547950A943D
:102A9000D2F781E090E0A0E0B0E004C0880F991F79
:102AA000AA1FBB1F2A95D2F70197A109B1098E2150
:102AB0009F21A023B1230097A105B10521F081E05A
:102AC00090E0A0E0B0E09A01AB01282B392B4A2B13
:102AD0005B2BDA01C9018F779070A070B0708034E1
:102AE0009105A105B10539F427FF09C0205C3F4FCE
:102AF0004F4F5F4F04C0215C3F4F4F4F5F4FE0E0AF
:102B0000F0E02030A0E03A07A0E04A07A0E45A072E
:102B100010F0E1E0F0E079018A0127C0603871052A
:102B200064F5FB01E158FF4FD801C7018F77907022
:102B3000A070B07080349105A105B10539F4E7FEAD
:102B40000DC080E490E0A0E0B0E004C08FE390E02E
:102B5000A0E0B0E0E80EF91E0A1F1B1F17FF05C01A
:102B600016950795F794E794319687E016950795A3
:102B7000F794E7948A95D1F705C0EE24FF248701E6
:102B8000EFEFF0E06E2F679566276795902F9F77A0
:102B9000D794DD24D7948E2F8695492F462B582F16
:102BA0005D29B701CA011F910F91FF90EF90DF904F
:102BB0000895FC01DB01408151812281622F6F77F2
:102BC00070E0221F2227221F9381892F880F822BDA
:102BD000282F30E0991F9927991F11969C931197E0
:102BE00021153105A9F5411551056105710511F44E
:102BF00082E037C082E89FEF13969C938E931297E2
:102C00009A01AB0167E0220F331F441F551F6A95DD
:102C1000D1F783E08C930DC0220F331F441F551F43
:102C200012968D919C911397019713969C938E9376
:102C30001297203080E0380780E0480780E458078A
:102C400058F314962D933D934D935C9317970895E5
:102C50002F3F310579F4411551056105710519F4CE
:102C600084E08C93089564FF03C081E08C9312C0CC
:102C70001C9210C02F57304013963C932E931297FE
:102C800083E08C9387E0440F551F661F771F8A955A
:102C9000D1F7706414964D935D936D937C93179761
:102CA00008951F93DC01FB019C91923008F447C00A
:102CB0008081823008F443C0943051F411961C9105
:102CC000843099F58181682F70E0611B71093FC0E4
:102CD000843021F0923031F48230B9F1818188233F
:102CE00089F12DC011961C9111978230F1F08181EC
:102CF0001817D9F412962D913C91139782819381E4
:102D00008217930794F028173907BCF014968D9119
:102D10009D910D90BC91A02D2481358146815781D4
:102D2000281739074A075B0718F4112341F00AC036
:102D300082179307A407B50740F4112319F061E047
:102D400070E005C06FEF7FEF02C060E070E0CB0184
:102D50001F910895A1E1B0E0E0EBF6E10C94451A73
:102D60003C017F876E876A01FC011782168283818E
:102D700081FD03C06FEF7FEF6FC39E012F5F3F4F59
:102D8000398B288BF3012381EE85FF8523FD859107
:102D900023FF8191FF87EE87882309F45AC3853288
:102DA00051F4EE85FF8523FD859123FF8191FF87F7
:102DB000EE87853229F490E0B3010E94901BE2CFA8
:102DC000982F10E0882499241032B0F49B3269F0D7
:102DD0009C3228F4903251F0933271F40BC09D3242
:102DE00039F0903349F4116028C01260146025C096
:102DF000186023C0106121C017FD2AC0892F80539D
:102E00008A3078F416FF06C0FAE09F9E902C1124B9
:102E1000980E13C03AE0839E802C1124880E106215
:102E20000CC09E3221F416FD14C3106406C09C36FB
:102E300011F4106802C0983659F4EE85FF8523FD21
:102E4000959123FF9191FF87EE87992309F0BCCFDD
:102E5000892F8554833020F4812F8061905E07C0D4
:102E6000892F8556833008F09FC1812F8F7E86FD84
:102E700002C076E0972E6FE3F62EF822953619F40D
:102E8000F0E4FF2A07C0963619F420E8F22A02C0BF
:102E900091109A94F7FE0AC03BE3391518F45CE3ED
:102EA000B52E02C0B92CB39427E009C047E04915FC
:102EB00020F4BB2447E0942EF7CF292DBB24C60174
:102EC00004969D878C87F601608171818281938150
:102ED000AE014F5F5F4F0B2D0E949A1A6C01098162
:102EE000202E332400FF04C003FD02C01DE209C0F0
:102EF000F1FE02C01BE205C0F2FC02C010E001C0FE
:102F000010E2C1018C709070892BB9F1112311F47A
:102F100083E001C084E0881510F088240AC0881A74
:102F2000F3FC07C080E290E0B3010E94901B8A94FA
:102F3000C9F7112329F0812F90E0B3010E94901B63
:102F400023FE03C00CE710E00EC000E810E00BC049
:102F5000E114F10409F0805290E0B3010E94901B4B
:102F60000F5F1F4F05C0EF2CFF24F0E1EF22FF247D
:102F7000F8018491882361F714C1F7FE12C0BC0CDC
:102F800024FE04C08A81813309F4BA941B141CF016
:102F9000BB24B3942DC0F8E0FB1550F538E0B32EF8
:102FA00027C0F6FC25C0892D90E08C159D054CF0BE
:102FB0002CEFC2162FEFD20624F030E8F32A01C01E
:102FC0009A94992049F0E2E0F0E0EC0FFD1FE90D42
:102FD000F11D80818033A1F3F7FE0AC0B92CB394B0
:102FE000892D90E0C816D90614F0992401C09C18C8
:102FF000F7FC03C025E030E009C01C141D041CF0E0
:1030000021E030E003C096012F5F3F4F112311F004
:103010002F5F3F4F992029F0892D90E00196280FCE
:10302000391F882D90E02817390714F0882401C033
:10303000821A4F2C5524C20189709070892B39F067
:1030400008C080E290E0B3010E94901B8A9488201F
:10305000C1F7112329F0812F90E0B3010E94901B4A
:1030600043FE07C008C080E390E0B3010E94901BBC
:103070008A948820C1F7F7FE46C08601D7FE02C0B9
:1030800000E010E076010894E11CF11CE01AF10A5E
:1030900041E050E04C0F5D1FE40EF51E26014B1879
:1030A0005108892D90E0AA24BB24A81AB90A5FEF21
:1030B0000F3F150729F48EE290E0B3010E94901BA8
:1030C000C016D10634F0401651061CF4F701808179
:1030D00001C080E3015010400894E11CF11C0A1566
:1030E0001B052CF090E0B3010E94901BE0CF0C1563
:1030F0001D0539F49A81963318F4953311F424FEA2
:1031000081E390E04BC08A81813309F00F7E90E02B
:10311000B3010E94901B9920A1F08EE290E0B301D0
:103120000E94901B12E0E1E0F0E0EC0FFD1FE10FC8
:10313000F11D1F5F808190E0B3010E94901B9A9463
:1031400091F744FC03C085E690E002C085E490E07E
:10315000B3010E94901BD7FC05C0C114D10441F4F7
:1031600004FF06C0D094C194D108D3948DE201C06D
:103170008BE290E0B3010E94901B80E305C08F5F5B
:1031800026EF3FEFC20ED31E3AE0C316D104BCF7C0
:1031900090E0B3010E94901BC601C096B3010E944B
:1031A000901BCC84DD8452C1933631F0933799F073
:1031B000933509F059C023C0F601808189835E01EF
:1031C0000894A11CB11C22E030E0C20ED31E21E005
:1031D000E22EF12C12C0F601A080B18016FD03C0D2
:1031E0006FEF7FEF02C0692D70E022E030E0C20E89
:1031F000D31EC5010E947D1B7C011F7713C0F60101
:10320000A080B18016FD03C06FEF7FEF02C0692D73
:1032100070E022E030E0C20ED31EC5010E94721B96
:103220007C01106813FF07C01BC080E290E0B3016F
:103230000E94901B8A94882D90E0E816F906A8F366
:103240000FC0F50117FD859117FF81915F0190E097
:10325000B3010E94901B81108A940894E108F10840
:10326000E114F10471F7F2C0943611F0993689F542
:1032700017FF08C0F601208131814281538184E02B
:1032800090E00AC0F601808191819C01442737FDBE
:103290004095542F82E090E0C80ED91E9FE6F92E8B
:1032A000F12257FF09C050954095309521953F4F29
:1032B0004F4F5F4F90E8F92ACA01B901AE014F5F45
:1032C0005F4F2AE030E00E94531CE82EE889EE1A96
:1032D00041C0953721F41F7E2AE030E01CC0197FE1
:1032E0009F3661F0903720F4983509F0B2C00FC0D6
:1032F000903739F0983709F0ACC004C028E030E0CE
:103300000AC0106114FD146020E130E004C014FD17
:10331000166020E132E017FF08C0F601608171817C
:103320008281938144E050E008C0F6018081918160
:10333000BC0180E090E042E050E0C40ED51EAE013A
:103340004F5F5F4F0E94531CE82E5889E51A8FE7A4
:10335000F82EF122F6FE0BC08EEFF822E91438F4B5
:10336000F4FE07C0F2FC05C09FEEF92202C01E2D3C
:1033700001C0192DF4FE0DC0FE01EE0DF11D80817E
:10338000803319F4E9EEFE2208C01F5FF2FE05C08B
:1033900003C08F2D867809F01F5F0F2DF3FC14C03A
:1033A000F0FE0FC0181510F09E2C0BC09E2C980C30
:1033B000911A182D06C080E290E0B3010E94901B84
:1033C0001F5F1815C0F304C0181510F4811A01C04E
:1033D000882404FF0FC080E390E0B3010E94901B9B
:1033E00002FF1DC001FD03C088E790E00EC088E524
:1033F00090E00BC0802F867891F001FF02C08BE235
:1034000001C080E2F7FC8DE290E0B3010E94901BC6
:1034100006C080E390E0B3010E94901B9A94E914E7
:10342000C0F3EA94E1E0F0E0EC0FFD1FEE0DF11DBA
:10343000808190E0B3010E94901BEE2091F706C0BE
:1034400080E290E0B3010E94901B8A948820C1F72B
:1034500099CCF30166817781CB016196E2E10C940E
:10346000611AAA1BBB1B51E107C0AA1FBB1FA617ED
:10347000B70710F0A61BB70B881F991F5A95A9F71D
:1034800080959095BC01CD0108952F923F924F9267
:103490005F926F927F928F929F92AF92BF92CF92E4
:1034A000DF92EF92FF920F931F93CF93DF93CDB7ED
:1034B000DEB7CA1BDB0B0FB6F894DEBF0FBECDBF65
:1034C00009942A88398848885F846E847D848C8436
:1034D0009B84AA84B984C884DF80EE80FD800C813F
:1034E0001B81AA81B981CE0FD11D0FB6F894DEBF22
:1034F0000FBECDBFED010895FC0188279927E89400
:1035000021912032E9F3293010F02E30C8F32B320C
:1035100041F02D3239F4689404C00E94881B820F58
:10352000911D219120532A30C0F31EF4909581956E
:103530009F4F0895283008F027E03327DA01990FCC
:10354000311D87FD916000966105710539F4326087
:103550002E5F3D9330E32A95E1F708959F3F30F0C9
:1035600080387105610509F03C5F3C5F3D93913007
:1035700008F08068911DDF93CF931F930F93FF9204
:10358000EF92192F987F9695E92F96959695E90FCA
:10359000FF27E754FD4F99273327EE24FF24A70187
:1035A000E70105900894079428F4360FE71EF81EEB
:1035B000491F511D660F771F881F991F0694A1F799
:1035C0000590079428F4E70EF81E491F561FC11DE9
:1035D000770F881F991F661F0694A1F7059007941F
:1035E00028F4F80E491F561FC71FD11D880F991FB9
:1035F000661F771F0694A1F70590079420F4490FE2
:10360000561FC71FD81F990F661F771F881F069464
:10361000A9F784911095177041F0D695C7955795E5
:103620004795F794E7941A95C1F7EFE5F2E06894AF
:103630001590159135916591959105907FE273955F
:10364000E118F10A430B560BC90BD009C0F7E10C86
:10365000F11E431F561FC91FD01D7EF4703311F495
:103660008A95E6CFE894015030F0080F0AF400275D
:10367000021708F4202F2395022F7A3328F079E3DC
:103680007D932A95E9F710C07D932A9589F60694D3
:1036900097956795379517951794E118F10A430B9D
:1036A000560BC90BD00998F023957E9173957A3308
:1036B00008F070E37C932013B8F77E9170617D93DE
:1036C00030F0839571E37D9370E32A95E1F711243F
:1036D000EF90FF900F911F91CF91DF91992787FD78
:1036E00090950895FC010590615070400110D8F745
:1036F000809590958E0F9F1F0895FC01615070403A
:1037000001900110D8F7809590958E0F9F1F089516
:103710007AE0979F902D879F802D910D1124089519
:103720000F931F93CF93DF938C01EB018B8181FF6C
:103730001BC082FF0DC02E813F818C819D81281787
:10374000390764F4E881F9810193F983E88306C0BD
:10375000E885F985802F0995892B31F48E819F8129
:1037600001969F838E8302C00FEF1FEFC801DF9188
:10377000CF911F910F910895A0E0B0E0E2ECFBE142
:103780000C94551A9E01275F3F4F8D819E816F815A
:103790007885A9010E94351E2096E2E00C94711AEA
:1037A000A0E0B0E0E6EDFBE10C94551AFE01359681
:1037B000619171918091C8059091C905AF010E94F6
:1037C000AA162096E2E00C94711A0F931F93CF93E0
:1037D000DF938C01E091C805F091C905838181FFD9
:1037E00021C0C0E0D0E00DC0E091C805F091C9054E
:1037F00020853185BF01F9010995892B11F0CFEFA3
:10380000DFEFF80181918F01882371F7E091C805FE
:10381000F091C905208531858AE0BF01F90109953C
:10382000892B11F0CFEFDFEFCE01DF91CF911F9108
:103830000F910895A0E0B0E0E0E2FCE10C94551A8D
:10384000FE013596619171918091C6059091C705F1
:10385000AF010E94351E2096E2E00C94711AAEE092
:10386000B0E0E5E3FCE10C94531A0D891E8986E073
:103870008C831A8309838FEF9FE79E838D839E013C
:10388000275E3F4FCE0101966F89788DA9010E9476
:10389000AA162F813885020F131FF80110822E9669
:1038A000E4E00C946F1AFA01AA27283051F1203174
:1038B00081F1E8946F936E7F6E5F7F4F8F4F9F4FC4
:1038C000AF4FB1E03ED0B4E03CD0670F781F891F06
:1038D0009A1FA11D680F791F8A1F911DA11D6A0FD4
:1038E000711D811D911DA11D20D009F468943F9187
:1038F0002AE0269F11243019305D3193DEF6CF0186
:103900000895462F4770405D4193B3E00FD0C9F74B
:10391000F6CF462F4F70405D4A3318F0495D31FDB8
:103920004052419302D0A9F7EACFB4E0A69597950B
:10393000879577956795BA95C9F7009761057105E1
:1039400008959B01AC010A2E06945795479537952B
:103950002795BA95C9F7620F731F841F951FA01D85
:103960000895FC0120FD08C023FD05C022FF02C010
:1039700073836283518340830895EF92FF920F9384
:103980001F9344FF02C033E011C046FF02C034E081
:103990000DC0DB01FC01AA0FBB1FEE1FFF1F10941F
:1039A000D1F76A0F7B1F8E1F9F1F31E0660F771FB5
:1039B000881F991F3150D1F77B018C01E20EF11C59
:1039C000011D111DA8019701B701CA011F910F9197
:1039D000FF90EF9008950F931F93CF93DF938C0187
:1039E000C8010E94591FEC0197FD08C00E94461FA4
:1039F000892BB1F7CE01B8010E949B1FCE01DF9148
:103A0000CF911F910F910895A0E0B0E0EAE0FDE1B1
:103A10000C944D1AEC01C62E5A01122F0E94591F08
:103A2000AC018B3219F08D3251F41068CA9409F44C
:103A30006DC0CE010E94591FAC0197FD67C06DEFAC
:103A4000D62ED1228D2D807301F54033F1F4CA9426
:103A500009F447C0CE010E94591FAC0197FD41C037
:103A600082E0D82A483711F0483559F480E4D82A42
:103A7000CA94B9F1CE010E94591FAC0199232CF4CC
:103A800030C0D6FC02C080E1D82AEE24FF24870192
:103A9000242F2053283088F0D4FC09C02A3068F045
:103AA000D6FE05C02F7D822F8151863028F0CA01B5
:103AB000BE010E949B1F12C02750C801B7014D2DA7
:103AC0000E94BD1C7B018C0182E0D82ACA9461F05F
:103AD000CE010E94591FAC0197FFDACFD1FC04C080
:103AE00015C0EE24FF248701D7FE08C0109500956D
:103AF000F094E094E11CF11C011D111DC501B801F9
:103B0000A7012D2D0E94B11C81E001C080E0CDB73E
:103B1000DEB7EAE00C94691AA0E2B0E0E2E9FDE168
:103B20000C94491A6C01A62E8A017901FE01319686
:103B300080E2DF011D928A95E9F770E030E060E0F5
:103B400040E050E04F01A1E0B0E0F6018381F701D1
:103B500083FD259183FF21917F01222309F47EC0FB
:103B60002E3519F44115510569F1872F90E084171E
:103B7000950744F42D3551F12D3221F4332329F4E6
:103B800031E021C0332309F4622F322F832F869531
:103B900086958695F401E80FF11D832F87703D010E
:103BA00002C0660C771C8A95E2F7208126292083C3
:103BB000361711F430E007C0361710F43F5FE6CF38
:103BC0003150E4CF71E04F5F5F4FBFCF332319F027
:103BD0008E8180628E83772359F0FE0131969E019B
:103BE0002F5D3F4F808180958193E217F307D1F7D6
:103BF000BB24B3944E010894811C911CC6010E9401
:103C0000591FAC0197FD22C0869586958695F401D3
:103C1000E80FF11D808190E09A012770307002C09A
:103C2000959587952A95E2F780FD05C0CA01B601F2
:103C30000E949B1F0BC00115110519F0D8014D936F
:103C40008D01AA94BB24AA20C9F602C0BB2031F47E
:103C50000115110529F0F801108202C0EE24FF249D
:103C6000C701A096EEE00C94651AA0E0B0E0EBE38B
:103C7000FEE10C94491A5C016B013A01FC011782C8
:103C800016828824EAC0812F90E00E94461F892B6B
:103C900021F0C5010E94EB1CE0C0153249F4F60189
:103CA000F3FC6591F3FE61916F01653269F415E2F1
:103CB000C5010E94591F97FDDCC0181709F4CDC03B
:103CC000B5010E949B1FDAC06A3219F0162F00E07E
:103CD00006C0F3FC1591F3FE11916F0101E09924E8
:103CE0000FC00260692D70E080E090E040E20E9429
:103CF000BD1C962EF601F3FC1591F3FE11916F0198
:103D0000212F20532A3068F301FD03C099249A948F
:103D100003C0992009F4B2C0183621F01C3699F47A
:103D2000F6010BC0F601F3FC6591F3FE6191683674
:103D300019F06F01162F07C008600460F3FC15919D
:103D4000F3FE11916F01112309F498C089E593E006
:103D5000612F70E00E944E1F892B09F48FC0802FC5
:103D600000FF03C0EE24FF2407C0F301E080F180D0
:103D700022E030E0620E731E1E3651F4F5014681DA
:103D8000578160E070E0C701202F0E94B11C65C020
:103D9000133691F481FD02C099249394C5010E94C9
:103DA000591F97FD66C0E114F10419F0F7018193E2
:103DB0007F019A9499F74FC01B3559F4C501692DBD
:103DC000A70196010E948C1D6C01009709F043C069
:103DD0003DC0C5010E94EB1C97FD4BC01F3659F139
:103DE000103728F4143629F1193639F527C013375E
:103DF00019F0153711F51DC0C5010E94591FEC01BE
:103E000097FD11C00E94461F892B29F0CE01B501F4
:103E10000E949B1F08C0E114F10419F0F701C1933F
:103E20007F019A9449F7E114F104A9F0F701108297
:103E300012C0006203C0006101C00064C501692DA9
:103E4000A701202F0E94041D882329F4F5018381F6
:103E5000807379F413C000FF8394F501F380F601B9
:103E6000F3FC1591F3FE11916F01112309F00BCFB3
:103E700005C0882019F42FEF3FEF02C0282D30E055
:103E8000C901CDB7DEB7EEE00C94651A91116DC093
:103E9000803219F089508550D0F70895FC010590C3
:103EA000061621F00020D9F7C00108953197CF01FF
:103EB0000895CF93DF93EC014B8140FF1AC046FF7A
:103EC0000AC04F7B4B838E819F8101969F838E8397
:103ED0008A81282F2BC042FF13C0E881F98180819D
:103EE000282F332727FD30952115310529F440620D
:103EF0004B832FEF3FEF1BC03196F983E88311C04E
:103F0000EA85FB85CE0109959C0197FF0AC09B813C
:103F10002F5F3F4F11F080E201C080E1892B8B833E
:103F2000E8CF8E819F8101969F838E8330E0C90107
:103F3000DF91CF9108959C01FB01838180FF11C027
:103F400086FD0FC09FEF2F3F390759F02283806411
:103F50008F7D83838681978101979783868330E065
:103F600002C02FEF3FEFC9010895992788270895D0
:043F7000F894FFCFF3
:103F7400256600256900252E356600426F6F73742F
:103F8400656420566F6C746167653A0044657369B3
:103F940072656420566F6C746167653A2000200076
:103FA40050203D200049203D200044203D20002594
:103FB40063000A0A0D20546F20616C7465722064DA
:103FC40065736972656420766F6C746167652C2013
:103FD40069742773206B657920312E000A0D2054F3
:103FE4006F20616C7465722050207765696768740E
:103FF400696E672C2069742773206B657920322ED3
:10400400000A0D20546F20616C746572204920777A
:104014006569676874696E672C2069742773206BFF
:10402400657920332E000A0D20546F20616C74656D
:1040340072204420776569676874696E672C20690B
:10404400742773206B657920342E000A0D20546F79
:1040540020616C7465722064656C617920697427D1
:1040640073206B65792035000A202569200A000A2F
:104074000D506C6561736520656E74657220796F8F
:104084007572206E657720766F6C74616765206148
:10409400732074776F206E756D626572206B65791D
:1040A4007374726F6B65732C207468657920617208
:1040B4006520616464656420746F67657468657203
:1040C4002E000A436F6D706C65746564000A0D50B0
:1040D4006C6561736520656E74657220796F7572A5
:1040E400206E65772076616C756520666F72206B33
:1040F400502C20746865206E756D6265722067654A
:104104007473206164646564207468656E206D75E1
:104114006C7469706C696564206279206120636FD6
:104124006E7374616E74206F662031652D34000ADD
:104134000D506C6561736520656E74657220796FCE
:104144007572206E65772076616C756520666F7276
:10415400206B442C20746865206E756D6265722036
:1041640067657473206164646564207468656E2097
:104174006D756C7469706C69656420627920612066
:10418400636F6E7374616E74206F662031652D34B5
:10419400000A0D506C6561736520656E746572204C
:1041A400796F7572206E65772076616C756520660F
:1041B4006F72206B492C20746865206E756D626582
:1041C4007220676574732061646465642074686533
:1041D4006E206D756C7469706C69656420627920F9
:1041E4006120636F6E7374616E74206F6620316535
:1041F4002D35000A0D506C6561736520656E74651C
:104204007220796F7572206E65772064656C6179B0
:104214002076616C75652C2074686973206973203D
:104224006D756C7469706C696564206279203130D5
:1042340030000A20506C6561736520656E74657288
:1042440020612076616C6964206E756D6265720010
:104254009A99193F0A89D2DE3A0AD7A33C17B7D1F3
:104264003800000001000000000000E6010000002A
:1042740000000200000000D201000000003F013FE6
:10428400010B00E400200120010B00E40000010008
:10429400010B00E400E000E0000B00E400C000C0FB
:1042A400000B00E400A000A0000B00E400800080EC
:1042B400000B00E400600060000B00E400400040DC
:1042C400000B00E400200020000B00E400010001CA
:1042D400000B00E400F0004001030000000000FFB8
:1042E400FF00000000013F00000000EF0000252750
:1042F4000510093A784D05180D383A1F001F1A1891
:104304000A0F064587320A0702070500000100006C
:10431400000A8227000000000000000000000001E5
:10432400020203030303040404040404040405054F
:104334000505050505050505050505050505060627
:104344000606060606060606060606060606060609
:1043540006060606060606060606060606060707F7
:1043640007070707070707070707070707070707D9
:1043740007070707070707070707070707070707C9
:1043840007070707070707070707070707070707B9
:1043940007070707070707070707070707070808A7
:1043A4000808080808080808080808080808080889
:1043B4000808080808080808080808080808080879
:1043C4000808080808080808080808080808080869
:1043D4000808080808080808080808080808080859
:1043E4000808080808080808080808080808080849
:1043F4000808080808080808080808080808080839
:104404000808080808080808080808080808080828
:0E44140008080808080808080808080808082A
:00000001FF
