:100000000C942C010C94B8010C944B010C944901F4
:100010000C9449010C9449010C9449010C94490138
:100020000C9449010C9449010C9449010C94490128
:100030000C9449010C9425020C9449010C9449013B
:100040000C9449010C9449010C9449010C94490108
:100050000C9449010C9449010C9449010C944901F8
:100060000C9449010C9449010C9449010C944901E8
:100070000C9449010C9449010C94490100000000C2
:100080000000005F00000003000300143E143E1453
:10009000242A7F2A124333086661364955225000CC
:1000A00005030000001C2241000041221C0014082E
:1000B0003E081408083E08080050300000080808F0
:1000C0000808006060000020100804023E51494505
:1000D0003E0004027F0042615149462241494936AF
:1000E0001814127F1027454545393E4949493201C8
:1000F000017109073649494936264949493E0036C2
:100100003600000056360000081422410014141472
:100110001414004122140802015109063E415955A8
:100120005E7E0909097E7F494949363E41414122A7
:100130007F4141413E7F494949417F090909013ECB
:100140004141493A7F0808087F00417F4100304023
:1001500040403F7F081422417F404040407F020CD6
:10016000027F7F0204087F3E4141413E7F09090929
:10017000061E2121215E7F09090976264949493257
:1001800001017F01013F4040403F1F2040201F7F71
:100190002010207F41221C2241070870080761516E
:1001A000494543007F41000002040810200000413F
:1001B0007F0004020102044040404040000102046C
:1001C0000020545454787F444444383844444444D0
:1001D000384444447F385454541804047E050508B8
:1001E0005454543C7F0804047800447D400020406F
:1001F000443D007F1028440000417F40007C04788B
:1002000004787C0804047838444444387C1414147A
:1002100008081414147C007C080404485454542026
:1002200004043F44443C4040207C1C2040201C3CB3
:100230004030403C44281028440C5050503C44640A
:10024000544C44000836414100007F0000414136D3
:10025000080002010204020011241FBECFEFD0E10A
:10026000DEBFCDBF11E0A0E0B1E0E4EDF5E202C0F9
:1002700005900D92A237B107D9F711E0A2E7B1E0DE
:1002800001C01D92A837B107E1F70E9460020C94EB
:10029000E8120C9400001F920F920FB60F921124D7
:1002A0000F931F932F933F934F935F936F937F937E
:1002B0008F939F93AF93BF93EF93FF93DF93CF936E
:1002C000CDB7DEB7209100013091010140910201CC
:1002D0005091030160910401709105018091060124
:1002E0009091070100E010E00E943007809100012A
:1002F000909101018630910590F0809100019091DC
:100300000101059790930101809300018091020102
:10031000909103010597909303018093020120912E
:10032000000130910101409102015091030160915F
:1003300004017091050180910601909107010FEF72
:100340001FEF0E943007CF91DF91FF91EF91BF9196
:10035000AF919F918F917F916F915F914F913F915D
:100360002F911F910F910F900FBE0F901F90189516
:100370001F920F920FB60F9211240F931F932F937A
:100380003F934F935F936F937F938F939F93AF931D
:10039000BF93EF93FF93DF93CF93CDB7DEB7209159
:1003A00000013091010140910201509103016091DF
:1003B000040170910501809106019091070100E010
:1003C00010E00E94300780910201909103018C3E61
:1003D000910590F480910001909101010596909310
:1003E0000101809300018091020190910301059623
:1003F000909303018093020120910001309101014B
:100400004091020150910301609104017091050136
:1004100080910601909107010FEF1FEF0E943007B6
:10042000CF91DF91FF91EF91BF91AF919F918F910C
:100430007F916F915F914F913F912F911F910F91FC
:100440000F900FBE0F901F9018951F920F920FB62E
:100450000F9211242F933F934F935F936F937F934A
:100460008F939F93AF93BF93EF93FF93DF93CF93BC
:10047000CDB7DEB780917201909173010196909390
:100480007301809372018091720190917301909336
:100490007701809376010E946C02CF91DF91FF91EA
:1004A000EF91BF91AF919F918F917F916F915F91EC
:1004B0004F913F912F910F900FBE0F901F90189565
:1004C000DF93CF9300D0CDB7DEB70E941C030F900F
:1004D0000F90CF91DF910895DF93CF93CDB7DEB723
:1004E000CE5CD0400FB6F894DEBF0FBECDBF1886ED
:1004F0001F821E821D828F81988590933001809388
:100500002F018D819E81909332018093310188E08B
:1005100091E00E94220980917201909173012CE375
:1005200030E0B9010E94E90FCB019C838B8380915D
:100530007201909173012CE330E0B9010E94E90F40
:100540009A83898300D000D000D0EDB7FEB73196F2
:10055000CE010996918380838EE091E0938382831C
:100560008B819C81958384830E9447108DB79EB7B1
:1005700006960FB6F8949EBF0FBE8DBF00D000D078
:1005800000D0EDB7FEB73196CE0184599F4F9183CD
:1005900080838EE091E09383828389819A81958321
:1005A00084830E9447108DB79EB706960FB6F894C5
:1005B0009EBF0FBE8DBFCE0109960E94220981E128
:1005C00091E00E942209CE0184599F4F0E94220986
:1005D00083E191E00E942209C253DF4F0FB6F894E5
:1005E000DEBF0FBECDBFCF91DF910895DF93CF93D4
:1005F00000D000D000D0CDB7DEB79A8389837C834A
:100600006B835E834D8389819A81909330018093BF
:100610002F018B819C8190933201809331018D81D8
:100620009E810E94220926960FB6F894DEBF0FBE67
:10063000CDBFCF91DF9108950F931F93DF93CF9399
:10064000CDB7DEB7C254D0400FB6F894DEBF0FBEB0
:10065000CDBF1EA61DA61CA61BA61AA619A618A6C7
:100660001FA282E090E09EA38DA382E090E09CA375
:100670008BA38DE990E09AA389A382EA90E098A3E6
:100680008F8F89E890E09E8F8D8F8EE890E09C8F11
:100690008B8F2B8D3C8D8D8D9E8DA901481B590B09
:1006A000CA019A8F898F2F8D38A189A19AA1B9018A
:1006B000681B790BCB01988F8F8B1E8A1D8A80EF68
:1006C00090E09C8B8B8B8AE090E09A8B898B8AE000
:1006D00090E0988B8F870E9435090E94150880E072
:1006E00090E00E94AC0689A19AA12F8D38A14D8D72
:1006F0005E8D6B8D7C8D98AB8FA73AAB29AB5CABD5
:100700004BAB7EAB6DAB8D899E892B893C8949892A
:100710005A896F85788998AF8FAB3AAF29AF5CAFB4
:100720004BAF7EAF6DAF2FA538A949A95AA96BA9C8
:100730007CA98DA99EA90FE118EF0E943007209196
:10074000000130910101409102015091030160913B
:1007500004017091050180910601909107010FEF4E
:100760001FEF0E9430072FA938AD49AD5AAD6BADD0
:100770007CAD8DAD9EAD0FEF1FEF0E943007E0E81E
:10078000F0E01082E1E8F0E088E08083A1E8B0E0EA
:10079000E1E8F0E0808185608C93E8E8F0E086ECA9
:1007A0009DE291838083A9E6B0E0E9E6F0E08081F4
:1007B00082608C93A9E6B0E0E9E6F0E08081886091
:1007C0008C93ADE3B0E0EDE3F0E0808181608C9349
:1007D000ADE3B0E0EDE3F0E0808182608C93AFE6C2
:1007E000B0E0EFE6F0E0808182608C93789480E066
:1007F00090E0A0EAB1E48B879C87AD87BE876B85CC
:100800007C858D859E8520E030E04AE753E40E9498
:10081000650CDC01CB018F839887A987BA876F812C
:10082000788589859A8520E030E040E85FE30E9482
:10083000BF0D88232CF481E090E09E838D833FC020
:100840006F81788589859A8520E03FEF4FE757E4EF
:100850000E945F0D18164CF56B857C858D859E85F5
:1008600020E030E040E251E40E94650CDC01CB0165
:10087000BC01CD010E948F0ADC01CB019E838D83D8
:100880000FC089E190E09C838B838B819C810197D1
:10089000F1F79C838B838D819E8101979E838D834D
:1008A0008D819E81009769F714C06F817885898555
:1008B0009A850E948F0ADC01CB019E838D838D81F6
:1008C0009E819A83898389819A810197F1F79A831E
:1008D00089832FA538A949A95AA96BA97CA98DA9F3
:1008E0009EA900E010E00E94300749A95AA9209172
:1008F0000001309101018DA19EA1B901681B790B06
:10090000CB0148175907E8F14FA558A920910201DA
:10091000309103018DA19EA1820F931F841795072B
:1009200080F14BA95CA92091040130910501898DCA
:100930009A8DB901681B790BCB014817590708F14B
:100940004DA95EA92091060130910701898D9A8DEC
:10095000820F931F84179507A0F021961FAE1EAE3D
:10096000219789A59AA5009731F481E090E021961E
:100970009FAF8EAF219721964EAD5FAD21975AA7BD
:1009800049A74BA95CA920910601309107018BA1D1
:100990009CA1820F931F8417950708F43FC04DA9AF
:1009A0005EA920910401309105018BA19CA1B901A0
:1009B000681B790BCB014817590780F149A95AA93F
:1009C00020910201309103018F89988D820F931F2E
:1009D0008417950718F14FA558A92091000130916F
:1009E00001018F89988DB901681B790BCB014817DC
:1009F0005907A0F023961FAE1EAE23978FA198A58E
:100A0000009731F481E090E023969FAF8EAF23975B
:100A100023964EAD5FAD239758A74FA32091290190
:100A200030912A018DA19EA1281B390B89A99AA971
:100A30008217930720F081E090E09AA789A72DA163
:100A40003EA18FA598A92817390710F01AA619A654
:100A500020912B0130912C018BA19CA1281B390BDB
:100A60008DA99EA98217930720F081E090E098A7B6
:100A70008FA38BA19CA10A969C018BA99CA92817E6
:100A8000390710F018A61FA289A59AA5009749F06A
:100A90008DA59EA52DA13EA1821B930B9EA78DA780
:100AA00008C08DA59EA52DA13EA1820F931F9EA7D4
:100AB0008DA78FA198A5009749F08BA59CA52BA188
:100AC0003CA1821B930B9CA78BA708C08BA59CA560
:100AD0002BA13CA1820F931F9CA78BA72F8D38A120
:100AE0008DA59EA5820F931F9AAB89AB29A13AA130
:100AF0008DA59EA5820F931F98AB8FA72B8D3C8D44
:100B00008BA59CA5820F931F9EAB8DAB2D8D3E8D2B
:100B10008BA59CA5820F931F9CAB8BAB2FA538A9EF
:100B200049A95AA96BA97CA98DA99EA90FE118EF23
:100B30000E9430075CCEDF93CF9300D0CDB7DEB7F5
:100B40000F900F90CF91DF910895DF93CF93CDB7A2
:100B5000DEB7CC5FD3400FB6F894DEBF0FBECDBF7B
:100B60009E012D5F3F4FCA50DC4F39832883C65FFB
:100B7000D3408FE191E0C850DC4F99838883C85FF0
:100B8000D3409AE0C650DC4F9883CA5FD340C85028
:100B9000DC4FE881F981C85FD3400080C850DC4F4A
:100BA00028813981C85FD3402F5F3F4FC850DC4F49
:100BB00039832883C85FD340CA50DC4FE881F9816C
:100BC000C65FD3400082CA50DC4F28813981C65F9E
:100BD000D3402F5F3F4FCA50DC4F39832883C65F15
:100BE000D340C650DC4F3881CA5FD3403150C65025
:100BF000DC4F3883CA5FD340C650DC4F8881CA5F60
:100C0000D340882321F68AE090E09A838983F89480
:100C100080E090E00E94AC068FE198EF909336015F
:100C2000809335010E9415088091290190912A0135
:100C30000196FC01F695E795CC50DC4FF983E883EB
:100C4000C45FD34029813A81C901880F991F880F59
:100C5000991F820F931FC550DC4F99838883CB5F08
:100C6000D340C550DC4F28813981CB5FD34033233B
:100C70006CF4C550DC4F88819981CB5FD3400196DD
:100C8000C550DC4F99838883CB5FD340C550DC4F80
:100C900088819981CB5FD34095958795CC50DC4F67
:100CA000E881F981C45FD340E81BF90BCF01909331
:100CB000300180932F0180912B0190912C0196950A
:100CC00087959093320180933101CE0103960E9463
:100CD00022098091290190912A0101969695879584
:100CE00049979093300180932F0180912B0190912F
:100CF0002C01969587950A96909332018093310145
:100D000087E191E00E9422092091760130917701DC
:100D100000D000D000D0EDB7FEB73196CE010D96D1
:100D2000918380838EE091E0938382833583248353
:100D30000E9447102DB73EB72A5F3F4F0FB6F89479
:100D40003EBF0FBE2DBFCE010D960E94220910920C
:100D5000730110927201FFCF9C0190932E0180933A
:100D60002D01449886E385B94398439A449A211506
:100D7000310571F480EF90E090932A01809329016E
:100D800080E491E090932C0180932B0188E432C0A1
:100D90002130310571F480E491E090932A01809331
:100DA000290180EF90E090932C0180932B0188EE35
:100DB00021C02230310571F480EF90E090932A0138
:100DC0008093290180E491E090932C0180932B0182
:100DD00088E810C02330310581F480E491E09093DD
:100DE0002A018093290180EF90E090932C01809359
:100DF0002B0188E285B94398439A44988AE285B9E1
:100E00004398439A449A15B84398439A15B843981F
:100E1000439A8091290190912A01019795B90196F1
:100E20004398439A815085B94398439A44988BE2FA
:100E300085B94398439A449A15B84398439A15B88C
:100E40004398439A80912B0190912C01019795B979
:100E500001964398439A815085B94398439A0895DF
:100E6000EF92FF920F931F93DF93CF93CDB7DEB72F
:100E700028970FB6F894DEBF0FBECDBFF22F29839F
:100E8000E32F3A834B835C83362F6D83272F7E833A
:100E90008F8398877801AB81BC81062F172F6F81D4
:100EA000788544988AE285B94398439A449AE5B98B
:100EB0004398439AF5B94398439AB5B94398439AEE
:100EC000A5B94398439A44988BE285B94398439ACD
:100ED000449A25B94398439A35B94398439A75B9CA
:100EE0004398439A65B94398439A44988CE285B9EC
:100EF0004398439A449A2F2F3E2FC901AC010DC04D
:100F0000F5B84398439AE5B84398439A2F5F3F4F0B
:100F100062177307A8F74F5F5F4FA417B50710F06C
:100F20009801F6CF28960FB6F894DEBF0FBECDBF5E
:100F3000CF91DF911F910F91FF90EF900895EF9265
:100F4000FF920F931F93DF93CF93CDB7DEB7289710
:100F50000FB6F894DEBF0FBECDBFF22F2983E32F6B
:100F60003A834B835C83362F6D83272F7E838F8359
:100F70009887D8010B811C81E62EF72E6F8178852A
:100F800044988AE285B94398439A449AE5B94398CC
:100F9000439AF5B94398439A15B94398439A05B9CA
:100FA0004398439A44988BE285B94398439A449A6C
:100FB00025B94398439A35B94398439A75B94398EC
:100FC000439A65B94398439A44988CE285B943980B
:100FD000439A449A2F2F3E2FC901AC0114C0119699
:100FE0008C91119785B94398439A12968C911297D8
:100FF00085B914964398439A2F5F3F4F6217730742
:1010000070F74F5F5F4F0417150710F09701F6CF89
:1010100028960FB6F894DEBF0FBECDBFCF91DF91FB
:101020001F910F91FF90EF9008950F931F93DF93FF
:10103000CF93CDB7DEB728970FB6F894DEBF0FBEBB
:10104000CDBF1092300110922F01109232011092F8
:1010500031012091290130912A01215030408091A5
:101060002B0190912C0101971A821982422F3C8307
:101070002B831E821D8298878F83009135011091EA
:10108000360129813A815C816D817E8198850E943B
:10109000300728960FB6F894DEBF0FBECDBFCF91B4
:1010A000DF911F910F9108956F927F928F929F927F
:1010B000AF92BF92CF92DF92EF92FF920F931F9366
:1010C000CF93DF93982F00912F011091300124E0EE
:1010D000E22EF12CE00EF11E609031017090320191
:1010E00080528F3508F09FC0E301279685E0989FD6
:1010F000900111242452304044988BE285B94398E2
:10110000439A449A75B84398439A65B84398439A6A
:10111000D5B94398439AC5B94398439AC0903301CF
:10112000D0903401A0903501B0903601A8019AE228
:10113000892E8CE2982E36C0449885B84398439AFD
:10114000449A55B94398439A45B94398439A55B937
:101150004398439A45B94398439A449895B843981D
:10116000439A449AF901B491B30191E014C0A92FB4
:10117000AB2311F48B2D01C08D2D85B94398439A73
:10118000AA2311F48A2D01C08C2D85B94398439A66
:101190006F5F7F4F990FC617D70748F72F5F3F4FF5
:1011A0004F5F5F4FE416F50638F644988AE285B93A
:1011B0004398439A449A55B94398439A45B94398FA
:1011C000439A55B94398439A45B94398439A4498EA
:1011D0008CE285B94398439A449AC30107C0B5B8D5
:1011E0004398439AA5B84398439A0196C817D907DC
:1011F000B0F798012A5F3F4F3093300120932F01C1
:101200008091290190912A012817390760F01092E6
:10121000300110922F0188E090E0680E791E7092E4
:10122000320160923101DF91CF911F910F91FF90B8
:10123000EF90DF90CF90BF90AF909F908F907F9076
:101240006F9008951F93CF93DF93EC0110E003C0DC
:101250000E9454081F5FFE01E10FF11D8081882369
:10126000B9F7DF91CF911F91089585B7806885BF49
:1012700085B7806885BF8FE787B98FEF84B90E94F3
:1012800042090895429888EE93E02CE231E0F9019A
:101290003197F1F70197D9F7429A88EE93E02CE263
:1012A00031E0F9013197F1F70197D9F7449A439A60
:1012B000459A40984198469A449888E285B943985F
:1012C000439A449A449881E185B94398439A449A51
:1012D00088E592E02CE231E0F9013197F1F70197CE
:1012E000D9F744988BEC85B94398439A449A81E0A6
:1012F00085B94398439A449880EC85B94398439ABA
:10130000449A86E285B94398439A88E085B9439820
:10131000439A449881EC85B94398439A449A80E172
:1013200085B94398439A449885EC85B94398439A84
:10133000449A85E385B94398439A8EE385B94398E7
:10134000439A449886E385B94398439A449A88E43B
:1013500085B94398439A449880EB85B94398439A5A
:10136000449A8AE485B94398439A449881EB85B9B5
:101370004398439A449A15B84398439A8BE185B9A8
:101380004398439A449886EB85B94398439A449A84
:10139000E5E6F1E0819185B94398439A41E0E93669
:1013A000F407C1F7449887EC85B94398439A449A67
:1013B00085EB85B94398439A449886EF85B943985D
:1013C000439A449AE1E6F1E0819185B94398439AC2
:1013D00081E0E436F807C1F7449882EF85B9439875
:1013E000439A449A15B84398439A449886E285B93B
:1013F0004398439A449A81E085B94398439A449824
:101400008AE385B94398439A449A85E585B9439818
:10141000439A449880EE85B94398439A449AE1E50B
:10142000F1E0819185B94398439A41E0E036F407B1
:10143000C1F7449881EE85B94398439A449AE1E410
:10144000F1E0819185B94398439A81E0E035F8074E
:10145000C1F744988AE285B94398439A449AECE3E9
:10146000F1E0819185B94398439A41E0E034F40773
:10147000C1F744988BE285B94398439A449AE7E3CD
:10148000F1E0819185B94398439A81E0EB33F80705
:10149000C1F7449884E385B94398439A449A4498A1
:1014A00084EB85B94398439A449A15B84398439A74
:1014B000449887EB85B94398439A449A87E085B965
:1014C0004398439A44988CE285B94398439A449A46
:1014D00020E030E010C015B84398439A15B84398FF
:1014E000439A019641E080349407A9F72F5F3F4F5C
:1014F000203F310519F080E090E0EDCF449889E27B
:1015000085B94398439A449A84EF91E02CE231E004
:10151000F9013197F1F70197D9F7419A0895EF92C0
:10152000FF920F931F937B018C0120E030E040E09D
:101530005FE40E948F0D88238CF0C801B70120E082
:1015400030E040E05FE40E94070C0E94EF0D9B0139
:10155000AC01205030404040504806C0C801B7019F
:101560000E94EF0D9B01AC01B901CA011F910F91BF
:10157000FF90EF900895A0E0B0E0E1ECFAE00C9469
:101580001010DC012B01FA019C91923008F439C152
:10159000EB018881823008F433C1943069F48430DF
:1015A00009F02FC111969C9111978981981709F420
:1015B00028C1AAE6B1E025C1843009F421C18230F6
:1015C000A9F4923009F01DC19A01AD0188E0EA0149
:1015D0000990AE01E90109929E018150C1F7E20133
:1015E000898111969C918923818308C1923009F4E5
:1015F00007C112962D903C901397EB018A819B8135
:101600001496AD90BD90CD90DC901797EC80FD8046
:101610000E811F819101281B390BB90137FF04C0CE
:1016200066277727621B730B603271050CF061C06F
:10163000121613066CF537014801062E04C0969465
:101640008794779467940A94D2F721E030E040E0E1
:1016500050E004C0220F331F441F551F6A95D2F774
:1016600021503040404050402E213F214023512303
:10167000211531054105510521F021E030E040E020
:1016800050E079018A01E628F728082919293CC089
:10169000232BD1F1260E371E35014601062E04C03C
:1016A00096948794779467940A94D2F721E030E077
:1016B00040E050E004C0220F331F441F551F6A95BD
:1016C000D2F721503040404050402A213B214C214C
:1016D0005D21211531054105510521F021E030E062
:1016E00040E050E059016A01A628B728C828D92847
:1016F0000BC0821593052CF01C01AA24BB246501A4
:1017000003C0EE24FF24870111969C91D20111960B
:101710008C91981709F445C0992339F0A8019701D5
:101720002A193B094C095D0906C0A60195012E192D
:101730003F09400B510B57FD08C0118233822282B2
:1017400024833583468357831DC081E081833382A0
:10175000228288279927DC01821B930BA40BB50BEF
:1017600084839583A683B7830DC0220F331F441F44
:10177000551F248335834683578382819381019744
:10178000938382832481358146815781DA01C9019F
:101790000197A109B1098F5F9F4FAF4FBF4328F356
:1017A0000BC0918333822282EA0CFB1C0C1D1D1D91
:1017B000E482F5820683178383E080832481358168
:1017C0004681578157FF1AC0C901AA2797FDA095E6
:1017D000BA2F81709070A070B0705695479537956C
:1017E0002795822B932BA42BB52B84839583A683DB
:1017F000B78382819381019693838283DF0101C045
:10180000D201CD01CDB7DEB7E2E10C942C10A0E2FD
:10181000B0E0EDE0FCE00C941C1069837A838B83CC
:101820009C832D833E834F835887E9E0EE2EF12C75
:10183000EC0EFD1ECE010196B7010E94180F8E011D
:101840000F5E1F4FCE010596B8010E94180F8A89BE
:1018500091E089278A8BC701B801AE01475E5F4FCF
:101860000E94BB0A0E94430EA096E6E00C9438103A
:10187000A0E2B0E0EEE3FCE00C941C1069837A83F4
:101880008B839C832D833E834F835887F9E0EF2E13
:10189000F12CEC0EFD1ECE010196B7010E94180F2F
:1018A0008E010F5E1F4FCE010596B8010E94180FE2
:1018B000C701B801AE01475E5F4F0E94BB0A0E949C
:1018C000430EA096E6E00C943810A0E2B0E0EBE600
:1018D000FCE00C94101069837A838B839C832D83A6
:1018E0003E834F835887CE010196BE01675F7F4FCD
:1018F0000E94180FCE010596BE016F5E7F4F0E94B9
:10190000180F9985923088F089898230C8F0943018
:1019100019F4823051F404C0843029F4923081F4F7
:101920008AE691E0C6C0923049F420E09A858A891F
:10193000981321E02A87CE010996BBC0823049F472
:1019400020E09A858A89981321E02A8BCE0141965E
:10195000B0C02D843E844F8458886D887E888F88DF
:10196000988CEE24FF248701AA24BB24650140E063
:1019700050E060E070E0E0E0F0E0C1018170907064
:10198000892BE9F0E60CF71C081D191D9A01AB0123
:101990002A0D3B1D4C1D5D1D80E090E0A0E0B0E0F5
:1019A000E614F7040805190520F481E090E0A0E0B2
:1019B000B0E0BA01A901480F591F6A1F7B1FAA0C8A
:1019C000BB1CCC1CDD1C97FE08C081E090E0A0E0B1
:1019D000B0E0A82AB92ACA2ADB2A3196E032F105FA
:1019E00049F0660C771C881C991C569447943794D0
:1019F0002794C3CFFA85EA892B893C898B859C85FE
:101A0000280F391F2E5F3F4F17C0CA018170907099
:101A1000892B61F016950795F794E79480E090E0A4
:101A2000A0E0B0E8E82AF92A0A2B1B2B76956795E7
:101A3000579547952F5F3F4F77FDE7CF0CC0440F79
:101A4000551F661F771F17FD4160EE0CFF1C001F1E
:101A5000111F21503040403090E0590790E0690755
:101A600090E4790760F32B8F3C8FDB01CA018F77FD
:101A70009070A070B07080349105A105B10561F43B
:101A800047FD0AC0E114F1040105110529F0405C8D
:101A90005F4F6F4F7F4F40781A8EFE1711F081E035
:101AA0008A8F4D8F5E8F6F8F78A383E0898FCE01F1
:101AB00049960E94430EA096E2E10C942C10A8E1F6
:101AC000B0E0E5E6FDE00C941C1069837A838B831B
:101AD0009C832D833E834F83588789E0E82EF12C29
:101AE000EC0EFD1ECE010196B7010E94180F8E016B
:101AF0000F5E1F4FCE010596B8010E94180F898511
:101B0000823040F08989823028F0C701B8010E94F4
:101B1000900F01C08FEF6896E6E00C943810A8E1B2
:101B2000B0E0E5E9FDE00C941C1069837A838B83B7
:101B30009C832D833E834F83588789E0E82EF12CC8
:101B4000EC0EFD1ECE010196B7010E94180F8E010A
:101B50000F5E1F4FCE010596B8010E94180F8985B0
:101B6000823040F08989823028F0C701B8010E9494
:101B7000900F01C08FEF6896E6E00C943810A8E152
:101B8000B0E0E5ECFDE00C941C1069837A838B8354
:101B90009C832D833E834F83588789E0E82EF12C68
:101BA000EC0EFD1ECE010196B7010E94180F8E01AA
:101BB0000F5E1F4FCE010596B8010E94180F898550
:101BC000823040F08989823028F0C701B8010E9434
:101BD000900F01C081E06896E6E00C943810ACE00C
:101BE000B0E0E5EFFDE00C94201069837A838B83ED
:101BF0009C83CE010196BE016B5F7F4F0E94180F40
:101C00008D81823061F1823050F1843021F48E81F7
:101C1000882351F12EC02F81388537FD20C06E8179
:101C20002F3131051CF06623F9F023C08EE190E0DE
:101C3000821B930B29853A854B855C8504C056959C
:101C40004795379527958A95D2F76623B1F0509539
:101C50004095309521953F4F4F4F5F4F0EC020E08C
:101C600030E040E050E009C02FEF3FEF4FEF5FE77B
:101C700004C020E030E040E050E8B901CA012C96F1
:101C8000E2E00C943C10DF92EF92FF920F931F93CF
:101C9000FC01E480F58006811781D180808182304B
:101CA00048F480E090E0A0E1B0E0E82AF92A0A2BAD
:101CB0001B2BA5C0843009F49FC0823021F4EE2490
:101CC000FF24870105C0E114F1040105110519F491
:101CD000E0E0F0E096C0628173819FEF623879079F
:101CE0000CF05BC022E83FEF261B370B2A31310591
:101CF0002CF020E030E040E050E02AC0B801A7011D
:101D0000022E04C076956795579547950A94D2F7A9
:101D100081E090E0A0E0B0E004C0880F991FAA1F06
:101D2000BB1F2A95D2F70197A109B1098E219F21E6
:101D3000A023B1230097A105B10521F081E090E037
:101D4000A0E0B0E09A01AB01282B392B4A2B5B2B8A
:101D5000DA01C9018F779070A070B070803491055E
:101D6000A105B10539F427FF09C0205C3F4F4F4F53
:101D70005F4F04C0215C3F4F4F4F5F4FE0E0F0E00A
:101D80002030A0E03A07A0E04A07A0E45A0710F08C
:101D9000E1E0F0E079018A0127C06038710564F55F
:101DA000FB01E158FF4FD801C7018F779070A070F9
:101DB000B07080349105A105B10539F4E7FE0DC07E
:101DC00080E490E0A0E0B0E004C08FE390E0A0E009
:101DD000B0E0E80EF91E0A1F1B1F17FF05C016957D
:101DE0000795F794E794319687E016950795F79451
:101DF000E7948A95D1F705C0EE24FF248701EFEF21
:101E0000F0E06E2F679566276795902F9F77D794A0
:101E1000DD24D7948E2F8695492F462B582F5D2988
:101E2000B701CA011F910F91FF90EF90DF900895C5
:101E3000FC01DB01408151812281622F6F7770E0CC
:101E4000221F2227221F9381892F880F822B282F60
:101E500030E0991F9927991F11969C93119721158E
:101E60003105A9F5411551056105710511F482E0AF
:101E700037C082E89FEF13969C938E9312979A0136
:101E8000AB0167E0220F331F441F551F6A95D1F73E
:101E900083E08C930DC0220F331F441F551F1296F1
:101EA0008D919C911397019713969C938E93129703
:101EB000203080E0380780E0480780E4580758F376
:101EC00014962D933D934D935C93179708952F3F50
:101ED000310579F4411551056105710519F484E066
:101EE0008C93089564FF03C081E08C9312C01C9210
:101EF00010C02F57304013963C932E93129783E0D7
:101F00008C9387E0440F551F661F771F8A95D1F782
:101F1000706414964D935D936D937C931797089519
:101F20001F93DC01FB019C91923008F447C0808133
:101F3000823008F443C0943051F411961C918430DF
:101F400099F58181682F70E0611B71093FC0843071
:101F500021F0923031F48230B9F18181882389F106
:101F60002DC011961C9111978230F1F081811817C4
:101F7000D9F412962D913C91139782819381821707
:101F8000930794F028173907BCF014968D919D9112
:101F90000D90BC91A02D2481358146815781281751
:101FA00039074A075B0718F4112341F00AC082176A
:101FB0009307A407B50740F4112319F061E070E01E
:101FC00005C06FEF7FEF02C060E070E0CB011F91B2
:101FD000089597FB092E07260AD077FD04D00CD070
:101FE00006D000201AF4709561957F4F0895F6F79A
:101FF000909581959F4F0895AA1BBB1B51E107C087
:10200000AA1FBB1FA617B70710F0A61BB70B881F88
:10201000991F5A95A9F780959095BC01CD01089517
:102020002F923F924F925F926F927F928F929F92E8
:10203000AF92BF92CF92DF92EF92FF920F931F93D6
:10204000CF93DF93CDB7DEB7CA1BDB0B0FB6F89487
:10205000DEBF0FBECDBF09942A88398848885F84C7
:102060006E847D848C849B84AA84B984C884DF8038
:10207000EE80FD800C811B81AA81B981CE0FD11D1C
:102080000FB6F894DEBF0FBECDBFED010895AEE0F0
:10209000B0E0EDE4F0E10C941E100D891E8986E09D
:1020A0008C831A8309838FEF9FE79E838D839E0124
:1020B000275E3F4FCE0101966F89788DA9010E945E
:1020C0006B102F813885020F131FF80110822E9696
:1020D000E4E00C943A10ABE0B0E0E1E7F0E10C94FE
:1020E00010103C012B015A01FC01178216828381DA
:1020F00081FD03C06FEF7FEFC6C19AE0892E1E01FC
:102100000894211C311CF3012381F20123FD8591E8
:1021100023FF81912F01882309F4B2C1853239F45C
:1021200023FD859123FF81912F01853229F490E0D1
:10213000B3010E945E12E7CF982FFF24EE2499246A
:10214000FFE1FF15D0F09B3269F09C3228F4903209
:1021500059F0933291F40EC09D3249F0903369F4F6
:1021600041E024C052E0F52A84E0F82A28C098E033
:10217000F92A25C0E0E1FE2A22C0F7FC29C0892FF8
:1021800080538A3070F4F6FE05C0989C902C112480
:10219000980E15C0E89CE02C1124E80EF0E2FF2A0E
:1021A0000EC09E3229F4F6FC6BC140E4F42A07C04D
:1021B0009C3619F450E8F52A02C0983649F4F20129
:1021C00023FD959123FF91912F01992309F0B8CF19
:1021D000892F8554833018F08052833038F444E0DE
:1021E00050E0A40EB51E5FE359830FC0933631F063
:1021F000933779F0933509F056C020C0F5018081FE
:10220000898342E050E0A40EB51E610101E010E0B8
:1022100012C0F501C080D180F6FC03C06FEF7FEFE4
:1022200002C0692D70E042E050E0A40EB51EC60168
:102230000E9453128C015FE7F52214C0F501C080A3
:10224000D180F6FC03C06FEF7FEF02C0692D70E014
:1022500042E050E0A40EB51EC6010E9448128C0157
:1022600050E8F52AF3FE07C01AC080E290E0B301FF
:102270000E945E12EA948E2D90E008171907A8F3C9
:102280000EC0F601F7FC8591F7FE81916F0190E099
:10229000B3010E945E12E110EA9401501040011552
:1022A000110579F7EAC0943611F0993669F5F7FE11
:1022B00008C0F501208131814281538184E090E0A2
:1022C0000AC0F501808191819C01442737FD40952A
:1022D000542F82E090E0A80EB91E9FE6F92257FF26
:1022E00009C050954095309521953F4F4F4F5F4F16
:1022F000E0E8FE2ACA01B901A1012AE030E00E940B
:102300008A12D82ED21840C0953729F41F2D1F7E6F
:102310002AE030E01DC01F2D197F9F3661F09037F5
:1023200020F4983509F0ACC00FC0903739F09837D9
:1023300009F0A6C004C028E030E00AC0106114FD16
:10234000146020E130E004C014FD166020E132E0AA
:1023500017FF08C0F501608171818281938144E09B
:1023600050E008C0F50180819181BC0180E090E0DF
:1023700042E050E0A40EB51EA1010E948A12D82EA0
:10238000D2188FE7F82EF122F6FE0BC05EEFF52291
:10239000D91438F4F4FE07C0F2FC05C08FEEF82221
:1023A00002C01D2D01C0192DF4FE0DC0FE01ED0D62
:1023B000F11D8081803319F499EEF92208C01F5F66
:1023C000F2FE05C003C08F2D867809F01F5F0F2D28
:1023D000F3FC14C0F0FE0FC01E1510F09D2C0BC0B6
:1023E0009D2C9E0C911A1E2D06C080E290E0B30138
:1023F0000E945E121F5F1E15C0F304C01E1510F46C
:10240000E11A01C0EE2404FF0FC080E390E0B301A5
:102410000E945E1202FF1DC001FD03C088E790E02C
:102420000EC088E590E00BC0802F867891F001FF08
:1024300002C08BE201C080E2F7FC8DE290E0B301C4
:102440000E945E1206C080E390E0B3010E945E121B
:102450009A94D914C0F3DA94F101ED0DF11D808145
:1024600090E0B3010E945E12DD20A9F706C080E271
:1024700090E0B3010E945E12EA94EE20C1F743CED1
:10248000F30166817781CB012B96E2E10C942C104D
:10249000FC010590615070400110D8F7809590952F
:1024A0008E0F9F1F0895FC01615070400190011034
:1024B000D8F7809590958E0F9F1F08950F931F93C7
:1024C000CF93DF938C01EB018B8181FF1BC082FFD7
:1024D0000DC02E813F818C819D812817390764F4BE
:1024E000E881F9810193F983E88306C0E885F985DD
:1024F000802F0995892B31F48E819F8101969F83CE
:102500008E8302C00FEF1FEFC801DF91CF911F91A3
:102510000F910895FA01AA27283051F1203181F155
:10252000E8946F936E7F6E5F7F4F8F4F9F4FAF4FDB
:10253000B1E03ED0B4E03CD0670F781F891F9A1FEE
:10254000A11D680F791F8A1F911DA11D6A0F711DA2
:10255000811D911DA11D20D009F468943F912AE0AE
:10256000269F11243019305D3193DEF6CF01089596
:10257000462F4770405D4193B3E00FD0C9F7F6CFC7
:10258000462F4F70405D4A3318F0495D31FD40528F
:10259000419302D0A9F7EACFB4E0A6959795879525
:1025A00077956795BA95C9F7009761057105089504
:1025B0009B01AC010A2E06945795479537952795B0
:1025C000BA95C9F7620F731F841F951FA01D089548
:0425D000F894FFCFAD
:1025D400320064003601390154696D653A0025649E
:1025E400003A002020200053636F72653A200047B0
:1025F400616D65204F76657200F0004001030000B4
:10260400000000FFFF00000000013F00000000EF99
:10261400000025270510093A784D05180D383A1F92
:10262400001F1A180A0F064587320A070207050019
:1026340000010000000A82270000000000000000E2
:02264400000094
:00000001FF
